{
  "_format": "hh-sol-artifact-1",
  "contractName": "OneForge",
  "sourceName": "contracts/OneForge.sol",
  "abi": [
    {
      "inputs": [
        {
          "internalType": "contract IMintNFT",
          "name": "_mintNft",
          "type": "address"
        },
        {
          "internalType": "contract IERC20",
          "name": "_token",
          "type": "address"
        }
      ],
      "stateMutability": "nonpayable",
      "type": "constructor"
    },
    {
      "anonymous": false,
      "inputs": [
        {
          "indexed": true,
          "internalType": "address",
          "name": "user",
          "type": "address"
        },
        {
          "indexed": false,
          "internalType": "uint256",
          "name": "x",
          "type": "uint256"
        },
        {
          "indexed": false,
          "internalType": "uint256",
          "name": "y",
          "type": "uint256"
        },
        {
          "indexed": false,
          "internalType": "uint256",
          "name": "z",
          "type": "uint256"
        },
        {
          "indexed": false,
          "internalType": "bool",
          "name": "claimed",
          "type": "bool"
        }
      ],
      "name": "AirdropNFT",
      "type": "event"
    },
    {
      "anonymous": false,
      "inputs": [
        {
          "indexed": true,
          "internalType": "uint256",
          "name": "linkedListId",
          "type": "uint256"
        },
        {
          "indexed": true,
          "internalType": "uint256",
          "name": "prevLinkedListId",
          "type": "uint256"
        },
        {
          "indexed": false,
          "internalType": "uint256",
          "name": "sizeOfMergeList",
          "type": "uint256"
        },
        {
          "indexed": true,
          "internalType": "address",
          "name": "user",
          "type": "address"
        }
      ],
      "name": "MergedNFTCombined",
      "type": "event"
    },
    {
      "anonymous": false,
      "inputs": [
        {
          "indexed": true,
          "internalType": "uint256",
          "name": "linkedListId",
          "type": "uint256"
        },
        {
          "indexed": false,
          "internalType": "uint256",
          "name": "sizeOfMergeList",
          "type": "uint256"
        },
        {
          "indexed": true,
          "internalType": "address",
          "name": "user",
          "type": "address"
        }
      ],
      "name": "MergedNFTCreated",
      "type": "event"
    },
    {
      "anonymous": false,
      "inputs": [
        {
          "indexed": true,
          "internalType": "uint256",
          "name": "linkedListId",
          "type": "uint256"
        },
        {
          "indexed": false,
          "internalType": "uint256",
          "name": "sizeOfMergeList",
          "type": "uint256"
        },
        {
          "indexed": true,
          "internalType": "address",
          "name": "user",
          "type": "address"
        }
      ],
      "name": "MergedNFTUpdated",
      "type": "event"
    },
    {
      "anonymous": false,
      "inputs": [
        {
          "indexed": true,
          "internalType": "address",
          "name": "previousOwner",
          "type": "address"
        },
        {
          "indexed": true,
          "internalType": "address",
          "name": "newOwner",
          "type": "address"
        }
      ],
      "name": "OwnershipTransferred",
      "type": "event"
    },
    {
      "anonymous": false,
      "inputs": [
        {
          "indexed": true,
          "internalType": "uint256",
          "name": "linkListId",
          "type": "uint256"
        },
        {
          "indexed": false,
          "internalType": "uint256",
          "name": "sizeOfLinkedList",
          "type": "uint256"
        },
        {
          "indexed": true,
          "internalType": "address",
          "name": "user",
          "type": "address"
        }
      ],
      "name": "RedeemNFT",
      "type": "event"
    },
    {
      "inputs": [],
      "name": "NFT_PRICE",
      "outputs": [
        {
          "internalType": "uint256",
          "name": "",
          "type": "uint256"
        }
      ],
      "stateMutability": "view",
      "type": "function"
    },
    {
      "inputs": [],
      "name": "airdropExpireTime",
      "outputs": [
        {
          "internalType": "uint256",
          "name": "",
          "type": "uint256"
        }
      ],
      "stateMutability": "view",
      "type": "function"
    },
    {
      "inputs": [
        {
          "internalType": "address",
          "name": "",
          "type": "address"
        }
      ],
      "name": "airdropInfo",
      "outputs": [
        {
          "internalType": "address",
          "name": "user",
          "type": "address"
        },
        {
          "internalType": "bool",
          "name": "claimed",
          "type": "bool"
        }
      ],
      "stateMutability": "view",
      "type": "function"
    },
    {
      "inputs": [],
      "name": "airdropNFT",
      "outputs": [],
      "stateMutability": "nonpayable",
      "type": "function"
    },
    {
      "inputs": [
        {
          "internalType": "address",
          "name": "communityWallet",
          "type": "address"
        }
      ],
      "name": "claimToken",
      "outputs": [],
      "stateMutability": "nonpayable",
      "type": "function"
    },
    {
      "inputs": [],
      "name": "getAirdropData",
      "outputs": [
        {
          "internalType": "address",
          "name": "_user",
          "type": "address"
        },
        {
          "internalType": "uint256[]",
          "name": "_x",
          "type": "uint256[]"
        },
        {
          "internalType": "uint256[]",
          "name": "_y",
          "type": "uint256[]"
        },
        {
          "internalType": "uint256[]",
          "name": "_z",
          "type": "uint256[]"
        },
        {
          "internalType": "bool",
          "name": "_claimed",
          "type": "bool"
        }
      ],
      "stateMutability": "view",
      "type": "function"
    },
    {
      "inputs": [
        {
          "internalType": "uint256",
          "name": "listId",
          "type": "uint256"
        },
        {
          "internalType": "uint256",
          "name": "_node",
          "type": "uint256"
        }
      ],
      "name": "getData",
      "outputs": [
        {
          "internalType": "bool",
          "name": "",
          "type": "bool"
        },
        {
          "internalType": "uint256",
          "name": "",
          "type": "uint256"
        }
      ],
      "stateMutability": "view",
      "type": "function"
    },
    {
      "inputs": [
        {
          "internalType": "uint256",
          "name": "",
          "type": "uint256"
        }
      ],
      "name": "list",
      "outputs": [
        {
          "internalType": "uint256",
          "name": "size",
          "type": "uint256"
        }
      ],
      "stateMutability": "view",
      "type": "function"
    },
    {
      "inputs": [
        {
          "internalType": "uint256",
          "name": "",
          "type": "uint256"
        }
      ],
      "name": "listIdOwner",
      "outputs": [
        {
          "internalType": "address",
          "name": "",
          "type": "address"
        }
      ],
      "stateMutability": "view",
      "type": "function"
    },
    {
      "inputs": [
        {
          "internalType": "uint256[]",
          "name": "tokenId",
          "type": "uint256[]"
        }
      ],
      "name": "merge",
      "outputs": [],
      "stateMutability": "nonpayable",
      "type": "function"
    },
    {
      "inputs": [],
      "name": "mergeID",
      "outputs": [
        {
          "internalType": "uint256",
          "name": "",
          "type": "uint256"
        }
      ],
      "stateMutability": "view",
      "type": "function"
    },
    {
      "inputs": [
        {
          "internalType": "uint256",
          "name": "listID",
          "type": "uint256"
        },
        {
          "internalType": "uint256[]",
          "name": "tokenID",
          "type": "uint256[]"
        }
      ],
      "name": "mergeWithExistingId",
      "outputs": [],
      "stateMutability": "nonpayable",
      "type": "function"
    },
    {
      "inputs": [
        {
          "internalType": "uint256",
          "name": "listID1",
          "type": "uint256"
        },
        {
          "internalType": "uint256",
          "name": "listID2",
          "type": "uint256"
        }
      ],
      "name": "mergedNFT",
      "outputs": [],
      "stateMutability": "nonpayable",
      "type": "function"
    },
    {
      "inputs": [],
      "name": "owner",
      "outputs": [
        {
          "internalType": "address",
          "name": "",
          "type": "address"
        }
      ],
      "stateMutability": "view",
      "type": "function"
    },
    {
      "inputs": [
        {
          "internalType": "uint256",
          "name": "listID",
          "type": "uint256"
        }
      ],
      "name": "redeemNFT",
      "outputs": [],
      "stateMutability": "nonpayable",
      "type": "function"
    },
    {
      "inputs": [],
      "name": "renounceOwnership",
      "outputs": [],
      "stateMutability": "nonpayable",
      "type": "function"
    },
    {
      "inputs": [
        {
          "internalType": "uint256",
          "name": "_listId",
          "type": "uint256"
        },
        {
          "internalType": "address",
          "name": "user",
          "type": "address"
        }
      ],
      "name": "setLinkedListOwner",
      "outputs": [
        {
          "internalType": "address",
          "name": "",
          "type": "address"
        }
      ],
      "stateMutability": "nonpayable",
      "type": "function"
    },
    {
      "inputs": [
        {
          "internalType": "address",
          "name": "nftMarketplaceAddr",
          "type": "address"
        }
      ],
      "name": "setMarketplace",
      "outputs": [],
      "stateMutability": "nonpayable",
      "type": "function"
    },
    {
      "inputs": [
        {
          "internalType": "uint256",
          "name": "_id",
          "type": "uint256"
        }
      ],
      "name": "sizeOfList",
      "outputs": [
        {
          "internalType": "uint256",
          "name": "",
          "type": "uint256"
        }
      ],
      "stateMutability": "view",
      "type": "function"
    },
    {
      "inputs": [
        {
          "internalType": "address",
          "name": "newOwner",
          "type": "address"
        }
      ],
      "name": "transferOwnership",
      "outputs": [],
      "stateMutability": "nonpayable",
      "type": "function"
    },
    {
      "inputs": [
        {
          "internalType": "address",
          "name": "_user",
          "type": "address"
        },
        {
          "internalType": "uint256[]",
          "name": "_x",
          "type": "uint256[]"
        },
        {
          "internalType": "uint256[]",
          "name": "_y",
          "type": "uint256[]"
        },
        {
          "internalType": "uint256[]",
          "name": "_z",
          "type": "uint256[]"
        }
      ],
      "name": "uploadData",
      "outputs": [],
      "stateMutability": "nonpayable",
      "type": "function"
    }
  ],
  "bytecode": "0x60c0604052620222e06004553480156200001857600080fd5b5060405162003ef238038062003ef283398181016040528101906200003e9190620001e5565b6200005e62000052620000eb60201b60201c565b620000f360201b60201c565b8173ffffffffffffffffffffffffffffffffffffffff1660a08173ffffffffffffffffffffffffffffffffffffffff1660601b815250508073ffffffffffffffffffffffffffffffffffffffff1660808173ffffffffffffffffffffffffffffffffffffffff1660601b815250506276a70042620000dd919062000226565b60068190555050506200034c565b600033905090565b60008060009054906101000a900473ffffffffffffffffffffffffffffffffffffffff169050816000806101000a81548173ffffffffffffffffffffffffffffffffffffffff021916908373ffffffffffffffffffffffffffffffffffffffff1602179055508173ffffffffffffffffffffffffffffffffffffffff168173ffffffffffffffffffffffffffffffffffffffff167f8be0079c531659141344cd1fd0a4f28419497f9722a3daafe3b4186f6b6457e060405160405180910390a35050565b600081519050620001c88162000318565b92915050565b600081519050620001df8162000332565b92915050565b60008060408385031215620001f957600080fd5b60006200020985828601620001ce565b92505060206200021c85828601620001b7565b9150509250929050565b60006200023382620002df565b91506200024083620002df565b9250827fffffffffffffffffffffffffffffffffffffffffffffffffffffffffffffffff03821115620002785762000277620002e9565b5b828201905092915050565b60006200029082620002bf565b9050919050565b6000620002a48262000283565b9050919050565b6000620002b88262000283565b9050919050565b600073ffffffffffffffffffffffffffffffffffffffff82169050919050565b6000819050919050565b7f4e487b7100000000000000000000000000000000000000000000000000000000600052601160045260246000fd5b620003238162000297565b81146200032f57600080fd5b50565b6200033d81620002ab565b81146200034957600080fd5b50565b60805160601c60a05160601c613b576200039b600039600081816109db01528181610e4801528181611b330152611ee30152600081816106c90152818161077401526109950152613b576000f3fe608060405234801561001057600080fd5b50600436106101375760003560e01c8063715018a6116100b857806399e673121161007c57806399e67312146103145780639ae1d81a14610344578063cbbdce8914610362578063de62d84214610384578063f2fde38b146103a0578063f7c212cf146103bc57610137565b8063715018a61461028457806373ad6c2d1461028e578063778ea57a146102aa57806380c9419e146102c65780638da5cb5b146102f657610137565b80634a7323cb116100ff5780634a7323cb146101df5780634e4fe306146101fd57806358dc2cdb1461022e578063676dd5631461024a5780636925a6d41461026857610137565b80632d63d3e11461013c5780632ebda60e1461016d57806332f289cf1461018957806334389820146101a5578063450aa8f8146101d5575b600080fd5b610156600480360381019061015191906127e4565b6103ec565b604051610164929190612f1b565b60405180910390f35b610187600480360381019061018291906129b0565b61043d565b005b6101a3600480360381019061019e91906127e4565b6105f7565b005b6101bf60048036038101906101ba9190612922565b610824565b6040516101cc9190612e98565b60405180910390f35b6101dd610857565b005b6101e7610c50565b6040516101f491906132e5565b60405180910390f35b61021760048036038101906102129190612a04565b610c56565b604051610225929190612fda565b60405180910390f35b61024860048036038101906102439190612922565b610c89565b005b610252610ed8565b60405161025f91906132e5565b60405180910390f35b610282600480360381019061027d9190612a04565b610ee2565b005b61028c611247565b005b6102a860048036038101906102a391906127e4565b6112cf565b005b6102c460048036038101906102bf919061280d565b6113ff565b005b6102e060048036038101906102db9190612922565b6117c8565b6040516102ed91906132e5565b60405180910390f35b6102fe6117e6565b60405161030b9190612e98565b60405180910390f35b61032e60048036038101906103299190612974565b61180f565b60405161033b9190612e98565b60405180910390f35b61034c61192f565b60405161035991906132e5565b60405180910390f35b61036a611935565b60405161037b959493929190612eb3565b60405180910390f35b61039e600480360381019061039991906128b8565b611b2f565b005b6103ba60048036038101906103b591906127e4565b611d91565b005b6103d660048036038101906103d19190612922565b611e89565b6040516103e391906132e5565b60405180910390f35b60016020528060005260406000206000915090508060000160009054906101000a900473ffffffffffffffffffffffffffffffffffffffff16908060040160009054906101000a900460ff16905082565b600061045a60026000858152602001908152602001600020611ead565b141561049b576040517f08c379a0000000000000000000000000000000000000000000000000000000008152600401610492906131e5565b60405180910390fd5b3373ffffffffffffffffffffffffffffffffffffffff166003600084815260200190815260200160002060009054906101000a900473ffffffffffffffffffffffffffffffffffffffff1673ffffffffffffffffffffffffffffffffffffffff161461053c576040517f08c379a000000000000000000000000000000000000000000000000000000000815260040161053390613205565b60405180910390fd5b60008151905060005b818110156105a257610597838281518110610589577f4e487b7100000000000000000000000000000000000000000000000000000000600052603260045260246000fd5b602002602001015185611ebb565b806001019050610545565b503373ffffffffffffffffffffffffffffffffffffffff16837f3d658c34c9b3ca85c527146bf7853e5334e6373bfb16f733e7fbb1ec9451a33b836040516105ea91906132e5565b60405180910390a3505050565b6105ff611f70565b73ffffffffffffffffffffffffffffffffffffffff1661061d6117e6565b73ffffffffffffffffffffffffffffffffffffffff1614610673576040517f08c379a000000000000000000000000000000000000000000000000000000000815260040161066a906131c5565b60405180910390fd5b6276a7006006544261068591906134b1565b116106c5576040517f08c379a00000000000000000000000000000000000000000000000000000000081526004016106bc906131a5565b60405180910390fd5b60007f000000000000000000000000000000000000000000000000000000000000000073ffffffffffffffffffffffffffffffffffffffff166370a08231306040518263ffffffff1660e01b81526004016107209190612e98565b60206040518083038186803b15801561073857600080fd5b505afa15801561074c573d6000803e3d6000fd5b505050506040513d601f19601f82011682018060405250810190610770919061294b565b90507f000000000000000000000000000000000000000000000000000000000000000073ffffffffffffffffffffffffffffffffffffffff1663a9059cbb83836040518363ffffffff1660e01b81526004016107cd929190612fb1565b602060405180830381600087803b1580156107e757600080fd5b505af11580156107fb573d6000803e3d6000fd5b505050506040513d601f19601f8201168201806040525081019061081f91906128f9565b505050565b60036020528060005260406000206000915054906101000a900473ffffffffffffffffffffffffffffffffffffffff1681565b6000806000806000610867611935565b945094509450945094503373ffffffffffffffffffffffffffffffffffffffff168573ffffffffffffffffffffffffffffffffffffffff16146108df576040517f08c379a00000000000000000000000000000000000000000000000000000000081526004016108d690613125565b60405180910390fd5b8061091f576040517f08c379a000000000000000000000000000000000000000000000000000000000815260040161091690613145565b60405180910390fd5b6276a7004260065461093191906134b1565b1115610972576040517f08c379a000000000000000000000000000000000000000000000000000000000815260040161096990613065565b60405180910390fd5b600084519050600081650574fbde600061098c9190613457565b90506109d987827f000000000000000000000000000000000000000000000000000000000000000073ffffffffffffffffffffffffffffffffffffffff16611f789092919063ffffffff16565b7f000000000000000000000000000000000000000000000000000000000000000073ffffffffffffffffffffffffffffffffffffffff166354879eff888888886040518563ffffffff1660e01b8152600401610a389493929190612f44565b600060405180830381600087803b158015610a5257600080fd5b505af1158015610a66573d6000803e3d6000fd5b505050506000600160008973ffffffffffffffffffffffffffffffffffffffff1673ffffffffffffffffffffffffffffffffffffffff16815260200190815260200160002060040160006101000a81548160ff02191690831515021790555060005b82811015610c46578773ffffffffffffffffffffffffffffffffffffffff167f5ee57b8472f39c7b8c814a9f1989ec18533ce4ebd2a02233f18b04868966c0a4888381518110610b41577f4e487b7100000000000000000000000000000000000000000000000000000000600052603260045260246000fd5b6020026020010151888481518110610b82577f4e487b7100000000000000000000000000000000000000000000000000000000600052603260045260246000fd5b6020026020010151888581518110610bc3577f4e487b7100000000000000000000000000000000000000000000000000000000600052603260045260246000fd5b6020026020010151600160008e73ffffffffffffffffffffffffffffffffffffffff1673ffffffffffffffffffffffffffffffffffffffff16815260200190815260200160002060040160009054906101000a900460ff16604051610c2b9493929190613300565b60405180910390a28080610c3e90613591565b915050610ac8565b5050505050505050565b60045481565b600080610c7e8360026000878152602001908152602001600020611ffe90919063ffffffff16565b915091509250929050565b6000610ca660026000848152602001908152602001600020611ead565b90506000811415610cec576040517f08c379a0000000000000000000000000000000000000000000000000000000008152600401610ce3906130a5565b60405180910390fd5b3373ffffffffffffffffffffffffffffffffffffffff166003600084815260200190815260200160002060009054906101000a900473ffffffffffffffffffffffffffffffffffffffff1673ffffffffffffffffffffffffffffffffffffffff1614610d8d576040517f08c379a0000000000000000000000000000000000000000000000000000000008152600401610d8490613085565b60405180910390fd5b600081650574fbde6000610da19190613457565b90506002600084815260200190815260200160002060008082016000905550506003600084815260200190815260200160002060006101000a81549073ffffffffffffffffffffffffffffffffffffffff02191690553373ffffffffffffffffffffffffffffffffffffffff16837f19822ce1f6e6acfe7c473b0480ce897258f5c7395c17b19e1363e849d398b46884604051610e3e91906132e5565b60405180910390a37f000000000000000000000000000000000000000000000000000000000000000073ffffffffffffffffffffffffffffffffffffffff1663d7081e0333836040518363ffffffff1660e01b8152600401610ea1929190612fb1565b600060405180830381600087803b158015610ebb57600080fd5b505af1158015610ecf573d6000803e3d6000fd5b50505050505050565b650574fbde600081565b80821415610f25576040517f08c379a0000000000000000000000000000000000000000000000000000000008152600401610f1c906132c5565b60405180910390fd5b6000610f4260026000858152602001908152602001600020611ead565b90506000610f6160026000858152602001908152602001600020611ead565b90506000821415610fa7576040517f08c379a0000000000000000000000000000000000000000000000000000000008152600401610f9e90613185565b60405180910390fd5b6000811415610feb576040517f08c379a0000000000000000000000000000000000000000000000000000000008152600401610fe290613185565b60405180910390fd5b3373ffffffffffffffffffffffffffffffffffffffff166003600086815260200190815260200160002060009054906101000a900473ffffffffffffffffffffffffffffffffffffffff1673ffffffffffffffffffffffffffffffffffffffff161461108c576040517f08c379a000000000000000000000000000000000000000000000000000000000815260040161108390613025565b60405180910390fd5b3373ffffffffffffffffffffffffffffffffffffffff166003600085815260200190815260200160002060009054906101000a900473ffffffffffffffffffffffffffffffffffffffff1673ffffffffffffffffffffffffffffffffffffffff161461112d576040517f08c379a000000000000000000000000000000000000000000000000000000000815260040161112490613025565b60405180910390fd5b6000611155600060026000878152602001908152602001600020611ffe90919063ffffffff16565b915050600082846111669190613401565b90505b600083146111ef57611199600083600260008a81526020019081526020016000206120189092919063ffffffff16565b506111bf8260026000888152602001908152602001600020611ffe90919063ffffffff16565b9050809250506111e060026000878152602001908152602001600020612030565b50828060019003935050611169565b3373ffffffffffffffffffffffffffffffffffffffff1685877f35d6c84269e84f13b48873f20ab68d284f927634ceaff344bdb9a1115daac08f8460405161123791906132e5565b60405180910390a4505050505050565b61124f611f70565b73ffffffffffffffffffffffffffffffffffffffff1661126d6117e6565b73ffffffffffffffffffffffffffffffffffffffff16146112c3576040517f08c379a00000000000000000000000000000000000000000000000000000000081526004016112ba906131c5565b60405180910390fd5b6112cd6000612044565b565b6112d7611f70565b73ffffffffffffffffffffffffffffffffffffffff166112f56117e6565b73ffffffffffffffffffffffffffffffffffffffff161461134b576040517f08c379a0000000000000000000000000000000000000000000000000000000008152600401611342906131c5565b60405180910390fd5b600073ffffffffffffffffffffffffffffffffffffffff168173ffffffffffffffffffffffffffffffffffffffff1614156113bb576040517f08c379a00000000000000000000000000000000000000000000000000000000081526004016113b2906130e5565b60405180910390fd5b80600560006101000a81548173ffffffffffffffffffffffffffffffffffffffff021916908373ffffffffffffffffffffffffffffffffffffffff16021790555050565b611407611f70565b73ffffffffffffffffffffffffffffffffffffffff166114256117e6565b73ffffffffffffffffffffffffffffffffffffffff161461147b576040517f08c379a0000000000000000000000000000000000000000000000000000000008152600401611472906131c5565b60405180910390fd5b6000600160008673ffffffffffffffffffffffffffffffffffffffff1673ffffffffffffffffffffffffffffffffffffffff1681526020019081526020016000209050600073ffffffffffffffffffffffffffffffffffffffff163373ffffffffffffffffffffffffffffffffffffffff16141561152e576040517f08c379a000000000000000000000000000000000000000000000000000000000815260040161152590613225565b60405180910390fd5b8251845114611572576040517f08c379a000000000000000000000000000000000000000000000000000000000815260040161156990613105565b60405180910390fd5b81518451146115b6576040517f08c379a00000000000000000000000000000000000000000000000000000000081526004016115ad90613105565b60405180910390fd5b81518351146115fa576040517f08c379a00000000000000000000000000000000000000000000000000000000081526004016115f190613105565b60405180910390fd5b600084519050858260000160006101000a81548173ffffffffffffffffffffffffffffffffffffffff021916908373ffffffffffffffffffffffffffffffffffffffff16021790555060018260040160006101000a81548160ff02191690831515021790555060005b818110156117bf57826001018682815181106116a8577f4e487b7100000000000000000000000000000000000000000000000000000000600052603260045260246000fd5b6020026020010151908060018154018082558091505060019003906000526020600020016000909190919091505582600201858281518110611713577f4e487b7100000000000000000000000000000000000000000000000000000000600052603260045260246000fd5b602002602001015190806001815401808255809150506001900390600052602060002001600090919091909150558260030184828151811061177e577f4e487b7100000000000000000000000000000000000000000000000000000000600052603260045260246000fd5b6020026020010151908060018154018082558091505060019003906000526020600020016000909190919091505580806117b790613591565b915050611663565b50505050505050565b60026020528060005260406000206000915090508060000154905081565b60008060009054906101000a900473ffffffffffffffffffffffffffffffffffffffff16905090565b6000600560009054906101000a900473ffffffffffffffffffffffffffffffffffffffff1673ffffffffffffffffffffffffffffffffffffffff163373ffffffffffffffffffffffffffffffffffffffff16146118a1576040517f08c379a000000000000000000000000000000000000000000000000000000000815260040161189890613165565b60405180910390fd5b816003600085815260200190815260200160002060006101000a81548173ffffffffffffffffffffffffffffffffffffffff021916908373ffffffffffffffffffffffffffffffffffffffff1602179055506003600084815260200190815260200160002060009054906101000a900473ffffffffffffffffffffffffffffffffffffffff16905092915050565b60065481565b60006060806060600080600160003373ffffffffffffffffffffffffffffffffffffffff1673ffffffffffffffffffffffffffffffffffffffff1681526020019081526020016000206040518060a00160405290816000820160009054906101000a900473ffffffffffffffffffffffffffffffffffffffff1673ffffffffffffffffffffffffffffffffffffffff1673ffffffffffffffffffffffffffffffffffffffff16815260200160018201805480602002602001604051908101604052809291908181526020018280548015611a2e57602002820191906000526020600020905b815481526020019060010190808311611a1a575b5050505050815260200160028201805480602002602001604051908101604052809291908181526020018280548015611a8657602002820191906000526020600020905b815481526020019060010190808311611a72575b5050505050815260200160038201805480602002602001604051908101604052809291908181526020018280548015611ade57602002820191906000526020600020905b815481526020019060010190808311611aca575b505050505081526020016004820160009054906101000a900460ff16151515158152505090508060000151816020015182604001518360600151846080015195509550955095509550509091929394565b60007f000000000000000000000000000000000000000000000000000000000000000073ffffffffffffffffffffffffffffffffffffffff166370a08231336040518263ffffffff1660e01b8152600401611b8a9190612e98565b60206040518083038186803b158015611ba257600080fd5b505afa158015611bb6573d6000803e3d6000fd5b505050506040513d601f19601f82011682018060405250810190611bda919061294b565b1415611c1b576040517f08c379a0000000000000000000000000000000000000000000000000000000008152600401611c1290613245565b60405180910390fd5b6001815111611c5f576040517f08c379a0000000000000000000000000000000000000000000000000000000008152600401611c5690613285565b60405180910390fd5b60008151905060005b81811015611ccf57611cbc838281518110611cac577f4e487b7100000000000000000000000000000000000000000000000000000000600052603260045260246000fd5b6020026020010151600454611ebb565b8080611cc790613591565b915050611c68565b503360036000600454815260200190815260200160002060006101000a81548173ffffffffffffffffffffffffffffffffffffffff021916908373ffffffffffffffffffffffffffffffffffffffff1602179055503373ffffffffffffffffffffffffffffffffffffffff166004547fc27cdcaa6619b22f23e5f614d56aaff0cdd4e0e227eafb6a509fc20f3e0cde5b83604051611d6d91906132e5565b60405180910390a360046000815480929190611d8890613591565b91905055505050565b611d99611f70565b73ffffffffffffffffffffffffffffffffffffffff16611db76117e6565b73ffffffffffffffffffffffffffffffffffffffff1614611e0d576040517f08c379a0000000000000000000000000000000000000000000000000000000008152600401611e04906131c5565b60405180910390fd5b600073ffffffffffffffffffffffffffffffffffffffff168173ffffffffffffffffffffffffffffffffffffffff161415611e7d576040517f08c379a0000000000000000000000000000000000000000000000000000000008152600401611e7490613045565b60405180910390fd5b611e8681612044565b50565b6000611ea660026000848152602001908152602001600020611ead565b9050919050565b600081600001549050919050565b611ee0826002600084815260200190815260200160002061210890919063ffffffff16565b507f000000000000000000000000000000000000000000000000000000000000000073ffffffffffffffffffffffffffffffffffffffff166342966c68836040518263ffffffff1660e01b8152600401611f3a91906132e5565b600060405180830381600087803b158015611f5457600080fd5b505af1158015611f68573d6000803e3d6000fd5b505050505050565b600033905090565b611ff98363a9059cbb60e01b8484604051602401611f97929190612fb1565b604051602081830303815290604052907bffffffffffffffffffffffffffffffffffffffffffffffffffffffff19166020820180517bffffffffffffffffffffffffffffffffffffffffffffffffffffffff838183161783525050505061211e565b505050565b60008061200d848460016121e5565b915091509250929050565b6000612027848484600061223c565b90509392505050565b600061203d8260016122da565b9050919050565b60008060009054906101000a900473ffffffffffffffffffffffffffffffffffffffff169050816000806101000a81548173ffffffffffffffffffffffffffffffffffffffff021916908373ffffffffffffffffffffffffffffffffffffffff1602179055508173ffffffffffffffffffffffffffffffffffffffff168173ffffffffffffffffffffffffffffffffffffffff167f8be0079c531659141344cd1fd0a4f28419497f9722a3daafe3b4186f6b6457e060405160405180910390a35050565b600061211683836000612302565b905092915050565b6000612180826040518060400160405280602081526020017f5361666545524332303a206c6f772d6c6576656c2063616c6c206661696c65648152508573ffffffffffffffffffffffffffffffffffffffff1661231a9092919063ffffffff16565b90506000815111156121e057808060200190518101906121a091906128f9565b6121df576040517f08c379a00000000000000000000000000000000000000000000000000000000081526004016121d6906132a5565b60405180910390fd5b5b505050565b6000806121f28585612332565b6122025760008091509150612234565b600185600101600086815260200190815260200160002060008515151515815260200190815260200160002054915091505b935093915050565b60006122488584612332565b15801561225b575061225a8585612332565b5b156122cd57600085600101600086815260200190815260200160002060008415151515815260200190815260200160002054905061229b868686866123ed565b6122a7868583866123ed565b60018660000160008282546122bc9190613401565b9250508190555060019150506122d2565b600090505b949350505050565b6000806122e9846000856121e5565b9050809150506122f98482612452565b91505092915050565b6000612311846000858561223c565b90509392505050565b6060612329848460008561255c565b90509392505050565b60008083600101600084815260200190815260200160002060008015151515815260200190815260200160002054148015612398575060008360010160008481526020019081526020016000206000600115151515815260200190815260200160002054145b156123e25781836001016000808152602001908152602001600020600060011515151581526020019081526020016000205414156123d957600190506123e7565b600090506123e7565b600190505b92915050565b828460010160008481526020019081526020016000206000831515151515815260200190815260200160002081905550818460010160008581526020019081526020016000206000831515151581526020019081526020016000208190555050505050565b60008082148061246957506124678383612332565b155b156124775760009050612556565b6124d98384600101600085815260200190815260200160002060008015151515815260200190815260200160002054856001016000868152602001908152602001600020600060011515151581526020019081526020016000205460016123ed565b826001016000838152602001908152602001600020600080151515158152602001908152602001600020600090558260010160008381526020019081526020016000206000600115151515815260200190815260200160002060009055600183600001600082825461254b91906134b1565b925050819055508190505b92915050565b6060824710156125a1576040517f08c379a0000000000000000000000000000000000000000000000000000000008152600401612598906130c5565b60405180910390fd5b6125aa85612670565b6125e9576040517f08c379a00000000000000000000000000000000000000000000000000000000081526004016125e090613265565b60405180910390fd5b6000808673ffffffffffffffffffffffffffffffffffffffff1685876040516126129190612e81565b60006040518083038185875af1925050503d806000811461264f576040519150601f19603f3d011682016040523d82523d6000602084013e612654565b606091505b5091509150612664828286612693565b92505050949350505050565b6000808273ffffffffffffffffffffffffffffffffffffffff163b119050919050565b606083156126a3578290506126f3565b6000835111156126b65782518084602001fd5b816040517f08c379a00000000000000000000000000000000000000000000000000000000081526004016126ea9190613003565b60405180910390fd5b9392505050565b600061270d6127088461336a565b613345565b9050808382526020820190508285602086028201111561272c57600080fd5b60005b8581101561275c578161274288826127ba565b84526020840193506020830192505060018101905061272f565b5050509392505050565b60008135905061277581613adc565b92915050565b600082601f83011261278c57600080fd5b813561279c8482602086016126fa565b91505092915050565b6000815190506127b481613af3565b92915050565b6000813590506127c981613b0a565b92915050565b6000815190506127de81613b0a565b92915050565b6000602082840312156127f657600080fd5b600061280484828501612766565b91505092915050565b6000806000806080858703121561282357600080fd5b600061283187828801612766565b945050602085013567ffffffffffffffff81111561284e57600080fd5b61285a8782880161277b565b935050604085013567ffffffffffffffff81111561287757600080fd5b6128838782880161277b565b925050606085013567ffffffffffffffff8111156128a057600080fd5b6128ac8782880161277b565b91505092959194509250565b6000602082840312156128ca57600080fd5b600082013567ffffffffffffffff8111156128e457600080fd5b6128f08482850161277b565b91505092915050565b60006020828403121561290b57600080fd5b6000612919848285016127a5565b91505092915050565b60006020828403121561293457600080fd5b6000612942848285016127ba565b91505092915050565b60006020828403121561295d57600080fd5b600061296b848285016127cf565b91505092915050565b6000806040838503121561298757600080fd5b6000612995858286016127ba565b92505060206129a685828601612766565b9150509250929050565b600080604083850312156129c357600080fd5b60006129d1858286016127ba565b925050602083013567ffffffffffffffff8111156129ee57600080fd5b6129fa8582860161277b565b9150509250929050565b60008060408385031215612a1757600080fd5b6000612a25858286016127ba565b9250506020612a36858286016127ba565b9150509250929050565b6000612a4c8383612e63565b60208301905092915050565b612a61816134e5565b82525050565b6000612a72826133a6565b612a7c81856133d4565b9350612a8783613396565b8060005b83811015612ab8578151612a9f8882612a40565b9750612aaa836133c7565b925050600181019050612a8b565b5085935050505092915050565b612ace816134f7565b82525050565b6000612adf826133b1565b612ae981856133e5565b9350612af981856020860161352d565b80840191505092915050565b6000612b10826133bc565b612b1a81856133f0565b9350612b2a81856020860161352d565b612b3381613638565b840191505092915050565b6000612b4b6013836133f0565b9150612b5682613649565b602082019050919050565b6000612b6e6026836133f0565b9150612b7982613672565b604082019050919050565b6000612b916022836133f0565b9150612b9c826136c1565b604082019050919050565b6000612bb4601a836133f0565b9150612bbf82613710565b602082019050919050565b6000612bd7601d836133f0565b9150612be282613739565b602082019050919050565b6000612bfa6026836133f0565b9150612c0582613762565b604082019050919050565b6000612c1d6016836133f0565b9150612c28826137b1565b602082019050919050565b6000612c406027836133f0565b9150612c4b826137da565b604082019050919050565b6000612c63600f836133f0565b9150612c6e82613829565b602082019050919050565b6000612c86600f836133f0565b9150612c9182613852565b602082019050919050565b6000612ca96019836133f0565b9150612cb48261387b565b602082019050919050565b6000612ccc6011836133f0565b9150612cd7826138a4565b602082019050919050565b6000612cef601d836133f0565b9150612cfa826138cd565b602082019050919050565b6000612d126020836133f0565b9150612d1d826138f6565b602082019050919050565b6000612d356028836133f0565b9150612d408261391f565b604082019050919050565b6000612d58602b836133f0565b9150612d638261396e565b604082019050919050565b6000612d7b600c836133f0565b9150612d86826139bd565b602082019050919050565b6000612d9e6018836133f0565b9150612da9826139e6565b602082019050919050565b6000612dc16000836133f0565b9150612dcc82613a0f565b600082019050919050565b6000612de4601d836133f0565b9150612def82613a12565b602082019050919050565b6000612e076015836133f0565b9150612e1282613a3b565b602082019050919050565b6000612e2a602a836133f0565b9150612e3582613a64565b604082019050919050565b6000612e4d6017836133f0565b9150612e5882613ab3565b602082019050919050565b612e6c81613523565b82525050565b612e7b81613523565b82525050565b6000612e8d8284612ad4565b915081905092915050565b6000602082019050612ead6000830184612a58565b92915050565b600060a082019050612ec86000830188612a58565b8181036020830152612eda8187612a67565b90508181036040830152612eee8186612a67565b90508181036060830152612f028185612a67565b9050612f116080830184612ac5565b9695505050505050565b6000604082019050612f306000830185612a58565b612f3d6020830184612ac5565b9392505050565b600060a082019050612f596000830187612a58565b8181036020830152612f6a81612db4565b90508181036040830152612f7e8186612a67565b90508181036060830152612f928185612a67565b90508181036080830152612fa68184612a67565b905095945050505050565b6000604082019050612fc66000830185612a58565b612fd36020830184612e72565b9392505050565b6000604082019050612fef6000830185612ac5565b612ffc6020830184612e72565b9392505050565b6000602082019050818103600083015261301d8184612b05565b905092915050565b6000602082019050818103600083015261303e81612b3e565b9050919050565b6000602082019050818103600083015261305e81612b61565b9050919050565b6000602082019050818103600083015261307e81612b84565b9050919050565b6000602082019050818103600083015261309e81612ba7565b9050919050565b600060208201905081810360008301526130be81612bca565b9050919050565b600060208201905081810360008301526130de81612bed565b9050919050565b600060208201905081810360008301526130fe81612c10565b9050919050565b6000602082019050818103600083015261311e81612c33565b9050919050565b6000602082019050818103600083015261313e81612c56565b9050919050565b6000602082019050818103600083015261315e81612c79565b9050919050565b6000602082019050818103600083015261317e81612c9c565b9050919050565b6000602082019050818103600083015261319e81612cbf565b9050919050565b600060208201905081810360008301526131be81612ce2565b9050919050565b600060208201905081810360008301526131de81612d05565b9050919050565b600060208201905081810360008301526131fe81612d28565b9050919050565b6000602082019050818103600083015261321e81612d4b565b9050919050565b6000602082019050818103600083015261323e81612d6e565b9050919050565b6000602082019050818103600083015261325e81612d91565b9050919050565b6000602082019050818103600083015261327e81612dd7565b9050919050565b6000602082019050818103600083015261329e81612dfa565b9050919050565b600060208201905081810360008301526132be81612e1d565b9050919050565b600060208201905081810360008301526132de81612e40565b9050919050565b60006020820190506132fa6000830184612e72565b92915050565b60006080820190506133156000830187612e72565b6133226020830186612e72565b61332f6040830185612e72565b61333c6060830184612ac5565b95945050505050565b600061334f613360565b905061335b8282613560565b919050565b6000604051905090565b600067ffffffffffffffff82111561338557613384613609565b5b602082029050602081019050919050565b6000819050602082019050919050565b600081519050919050565b600081519050919050565b600081519050919050565b6000602082019050919050565b600082825260208201905092915050565b600081905092915050565b600082825260208201905092915050565b600061340c82613523565b915061341783613523565b9250827fffffffffffffffffffffffffffffffffffffffffffffffffffffffffffffffff0382111561344c5761344b6135da565b5b828201905092915050565b600061346282613523565b915061346d83613523565b9250817fffffffffffffffffffffffffffffffffffffffffffffffffffffffffffffffff04831182151516156134a6576134a56135da565b5b828202905092915050565b60006134bc82613523565b91506134c783613523565b9250828210156134da576134d96135da565b5b828203905092915050565b60006134f082613503565b9050919050565b60008115159050919050565b600073ffffffffffffffffffffffffffffffffffffffff82169050919050565b6000819050919050565b60005b8381101561354b578082015181840152602081019050613530565b8381111561355a576000848401525b50505050565b61356982613638565b810181811067ffffffffffffffff8211171561358857613587613609565b5b80604052505050565b600061359c82613523565b91507fffffffffffffffffffffffffffffffffffffffffffffffffffffffffffffffff8214156135cf576135ce6135da565b5b600182019050919050565b7f4e487b7100000000000000000000000000000000000000000000000000000000600052601160045260246000fd5b7f4e487b7100000000000000000000000000000000000000000000000000000000600052604160045260246000fd5b6000601f19601f8301169050919050565b7f4e6f74206d6572676564206279206f776e657200000000000000000000000000600082015250565b7f4f776e61626c653a206e6577206f776e657220697320746865207a65726f206160008201527f6464726573730000000000000000000000000000000000000000000000000000602082015250565b7f4f6e6c7920393020646179206c696d697420746f2061697264726f70204e465460008201527f2773000000000000000000000000000000000000000000000000000000000000602082015250565b7f4f6e6c79206f776e65722063616e2072656465656d2064617461000000000000600082015250565b7f52656465656d4e46543a4e6f7420636f6e7461696e20616e79204e4654000000600082015250565b7f416464726573733a20696e73756666696369656e742062616c616e636520666f60008201527f722063616c6c0000000000000000000000000000000000000000000000000000602082015250565b7f416464726573732063616e6e6f74206265207a65726f00000000000000000000600082015250565b7f54686520636f6f7264696e617465732073686f756c6420686176652073616d6560008201527f206c656e67746800000000000000000000000000000000000000000000000000602082015250565b7f75736572206e6f74206c69737465640000000000000000000000000000000000600082015250565b7f416c726561647920636c61696d65640000000000000000000000000000000000600082015250565b7f4e6f742063616c6c6564206279204d61726b6574706c61636500000000000000600082015250565b7f456d707479206c696e6b6564206c697374000000000000000000000000000000600082015250565b7f4f776e65722063616e20636c61696d2061667465722039302064617973000000600082015250565b7f4f776e61626c653a2063616c6c6572206973206e6f7420746865206f776e6572600082015250565b7f4e6f7420636f6e7461696e20616e79204461746120736f20756e61626c65207460008201527f6f20617070656e64000000000000000000000000000000000000000000000000602082015250565b7f4f6e6c79206f776e65722063616e20617070656e64206461746120696e746f2060008201527f6c696e6b6c697374206964000000000000000000000000000000000000000000602082015250565b7f7a65726f20616464726573730000000000000000000000000000000000000000600082015250565b7f55736572206e6f7420636f6e7461696e20616e79204e46540000000000000000600082015250565b50565b7f416464726573733a2063616c6c20746f206e6f6e2d636f6e7472616374000000600082015250565b7f4c656e677468206e6f7420657175616c20746f20310000000000000000000000600082015250565b7f5361666545524332303a204552433230206f7065726174696f6e20646964206e60008201527f6f74207375636365656400000000000000000000000000000000000000000000602082015250565b7f43616e6e6f74206d6572676520746f2073616d65204964000000000000000000600082015250565b613ae5816134e5565b8114613af057600080fd5b50565b613afc816134f7565b8114613b0757600080fd5b50565b613b1381613523565b8114613b1e57600080fd5b5056fea2646970667358221220dce4152bde6022963950b3af9a6e597da585474c50d67d8979cafabb150da63e64736f6c63430008010033",
  "linkReferences": {},
  "deployedLinkReferences": {}
}