{
  "_format": "hh-sol-artifact-1",
  "contractName": "MintNFT",
  "sourceName": "contracts/MintNFT.sol",
  "abi": [
    {
      "inputs": [
        {
          "internalType": "string",
          "name": "name_",
          "type": "string"
        },
        {
          "internalType": "string",
          "name": "symbol_",
          "type": "string"
        },
        {
          "internalType": "contract IERC20",
          "name": "_ogtToken",
          "type": "address"
        }
      ],
      "stateMutability": "nonpayable",
      "type": "constructor"
    },
    {
      "anonymous": false,
      "inputs": [
        {
          "indexed": true,
          "internalType": "address",
          "name": "owner",
          "type": "address"
        },
        {
          "indexed": true,
          "internalType": "address",
          "name": "approved",
          "type": "address"
        },
        {
          "indexed": true,
          "internalType": "uint256",
          "name": "tokenId",
          "type": "uint256"
        }
      ],
      "name": "Approval",
      "type": "event"
    },
    {
      "anonymous": false,
      "inputs": [
        {
          "indexed": true,
          "internalType": "address",
          "name": "owner",
          "type": "address"
        },
        {
          "indexed": true,
          "internalType": "address",
          "name": "operator",
          "type": "address"
        },
        {
          "indexed": false,
          "internalType": "bool",
          "name": "approved",
          "type": "bool"
        }
      ],
      "name": "ApprovalForAll",
      "type": "event"
    },
    {
      "anonymous": false,
      "inputs": [
        {
          "indexed": true,
          "internalType": "address",
          "name": "user",
          "type": "address"
        },
        {
          "indexed": false,
          "internalType": "string",
          "name": "metaData",
          "type": "string"
        },
        {
          "indexed": false,
          "internalType": "uint256",
          "name": "x",
          "type": "uint256"
        },
        {
          "indexed": false,
          "internalType": "uint256",
          "name": "y",
          "type": "uint256"
        },
        {
          "indexed": false,
          "internalType": "uint256",
          "name": "z",
          "type": "uint256"
        },
        {
          "indexed": true,
          "internalType": "uint256",
          "name": "encodeTokenID",
          "type": "uint256"
        }
      ],
      "name": "CreateNFT",
      "type": "event"
    },
    {
      "anonymous": false,
      "inputs": [
        {
          "indexed": true,
          "internalType": "address",
          "name": "previousOwner",
          "type": "address"
        },
        {
          "indexed": true,
          "internalType": "address",
          "name": "newOwner",
          "type": "address"
        }
      ],
      "name": "OwnershipTransferred",
      "type": "event"
    },
    {
      "anonymous": false,
      "inputs": [
        {
          "indexed": true,
          "internalType": "bytes32",
          "name": "role",
          "type": "bytes32"
        },
        {
          "indexed": true,
          "internalType": "bytes32",
          "name": "previousAdminRole",
          "type": "bytes32"
        },
        {
          "indexed": true,
          "internalType": "bytes32",
          "name": "newAdminRole",
          "type": "bytes32"
        }
      ],
      "name": "RoleAdminChanged",
      "type": "event"
    },
    {
      "anonymous": false,
      "inputs": [
        {
          "indexed": true,
          "internalType": "bytes32",
          "name": "role",
          "type": "bytes32"
        },
        {
          "indexed": true,
          "internalType": "address",
          "name": "account",
          "type": "address"
        },
        {
          "indexed": true,
          "internalType": "address",
          "name": "sender",
          "type": "address"
        }
      ],
      "name": "RoleGranted",
      "type": "event"
    },
    {
      "anonymous": false,
      "inputs": [
        {
          "indexed": true,
          "internalType": "bytes32",
          "name": "role",
          "type": "bytes32"
        },
        {
          "indexed": true,
          "internalType": "address",
          "name": "account",
          "type": "address"
        },
        {
          "indexed": true,
          "internalType": "address",
          "name": "sender",
          "type": "address"
        }
      ],
      "name": "RoleRevoked",
      "type": "event"
    },
    {
      "anonymous": false,
      "inputs": [
        {
          "indexed": true,
          "internalType": "address",
          "name": "from",
          "type": "address"
        },
        {
          "indexed": true,
          "internalType": "address",
          "name": "to",
          "type": "address"
        },
        {
          "indexed": true,
          "internalType": "uint256",
          "name": "tokenId",
          "type": "uint256"
        }
      ],
      "name": "Transfer",
      "type": "event"
    },
    {
      "inputs": [],
      "name": "DEFAULT_ADMIN_ROLE",
      "outputs": [
        {
          "internalType": "bytes32",
          "name": "",
          "type": "bytes32"
        }
      ],
      "stateMutability": "view",
      "type": "function"
    },
    {
      "inputs": [],
      "name": "MINTER_ROLE",
      "outputs": [
        {
          "internalType": "bytes32",
          "name": "",
          "type": "bytes32"
        }
      ],
      "stateMutability": "view",
      "type": "function"
    },
    {
      "inputs": [],
      "name": "NFT_PRICE",
      "outputs": [
        {
          "internalType": "uint256",
          "name": "",
          "type": "uint256"
        }
      ],
      "stateMutability": "view",
      "type": "function"
    },
    {
      "inputs": [
        {
          "internalType": "address",
          "name": "to",
          "type": "address"
        },
        {
          "internalType": "uint256",
          "name": "tokenId",
          "type": "uint256"
        }
      ],
      "name": "approve",
      "outputs": [],
      "stateMutability": "nonpayable",
      "type": "function"
    },
    {
      "inputs": [
        {
          "internalType": "address",
          "name": "owner",
          "type": "address"
        }
      ],
      "name": "balanceOf",
      "outputs": [
        {
          "internalType": "uint256",
          "name": "",
          "type": "uint256"
        }
      ],
      "stateMutability": "view",
      "type": "function"
    },
    {
      "inputs": [
        {
          "internalType": "uint256",
          "name": "tokenId",
          "type": "uint256"
        }
      ],
      "name": "burn",
      "outputs": [],
      "stateMutability": "nonpayable",
      "type": "function"
    },
    {
      "inputs": [
        {
          "internalType": "uint256",
          "name": "result",
          "type": "uint256"
        }
      ],
      "name": "decodeTokenId",
      "outputs": [
        {
          "internalType": "uint256",
          "name": "x",
          "type": "uint256"
        },
        {
          "internalType": "uint256",
          "name": "y",
          "type": "uint256"
        },
        {
          "internalType": "uint256",
          "name": "z",
          "type": "uint256"
        }
      ],
      "stateMutability": "pure",
      "type": "function"
    },
    {
      "inputs": [
        {
          "internalType": "uint256",
          "name": "x",
          "type": "uint256"
        },
        {
          "internalType": "uint256",
          "name": "y",
          "type": "uint256"
        },
        {
          "internalType": "uint256",
          "name": "z",
          "type": "uint256"
        }
      ],
      "name": "encodeTokenId",
      "outputs": [
        {
          "internalType": "uint256",
          "name": "",
          "type": "uint256"
        }
      ],
      "stateMutability": "pure",
      "type": "function"
    },
    {
      "inputs": [
        {
          "internalType": "uint256",
          "name": "x",
          "type": "uint256"
        },
        {
          "internalType": "uint256",
          "name": "y",
          "type": "uint256"
        },
        {
          "internalType": "uint256",
          "name": "z",
          "type": "uint256"
        }
      ],
      "name": "exists",
      "outputs": [
        {
          "internalType": "bool",
          "name": "",
          "type": "bool"
        }
      ],
      "stateMutability": "view",
      "type": "function"
    },
    {
      "inputs": [
        {
          "internalType": "uint256",
          "name": "tokenId",
          "type": "uint256"
        }
      ],
      "name": "getApproved",
      "outputs": [
        {
          "internalType": "address",
          "name": "",
          "type": "address"
        }
      ],
      "stateMutability": "view",
      "type": "function"
    },
    {
      "inputs": [
        {
          "internalType": "bytes32",
          "name": "role",
          "type": "bytes32"
        }
      ],
      "name": "getRoleAdmin",
      "outputs": [
        {
          "internalType": "bytes32",
          "name": "",
          "type": "bytes32"
        }
      ],
      "stateMutability": "view",
      "type": "function"
    },
    {
      "inputs": [
        {
          "internalType": "bytes32",
          "name": "role",
          "type": "bytes32"
        },
        {
          "internalType": "address",
          "name": "account",
          "type": "address"
        }
      ],
      "name": "grantRole",
      "outputs": [],
      "stateMutability": "nonpayable",
      "type": "function"
    },
    {
      "inputs": [
        {
          "internalType": "bytes32",
          "name": "role",
          "type": "bytes32"
        },
        {
          "internalType": "address",
          "name": "account",
          "type": "address"
        }
      ],
      "name": "hasRole",
      "outputs": [
        {
          "internalType": "bool",
          "name": "",
          "type": "bool"
        }
      ],
      "stateMutability": "view",
      "type": "function"
    },
    {
      "inputs": [
        {
          "internalType": "address",
          "name": "owner",
          "type": "address"
        },
        {
          "internalType": "address",
          "name": "operator",
          "type": "address"
        }
      ],
      "name": "isApprovedForAll",
      "outputs": [
        {
          "internalType": "bool",
          "name": "",
          "type": "bool"
        }
      ],
      "stateMutability": "view",
      "type": "function"
    },
    {
      "inputs": [
        {
          "internalType": "address",
          "name": "to",
          "type": "address"
        },
        {
          "internalType": "string",
          "name": "metadata",
          "type": "string"
        },
        {
          "internalType": "uint256[]",
          "name": "x",
          "type": "uint256[]"
        },
        {
          "internalType": "uint256[]",
          "name": "y",
          "type": "uint256[]"
        },
        {
          "internalType": "uint256[]",
          "name": "z",
          "type": "uint256[]"
        }
      ],
      "name": "mint",
      "outputs": [],
      "stateMutability": "nonpayable",
      "type": "function"
    },
    {
      "inputs": [],
      "name": "name",
      "outputs": [
        {
          "internalType": "string",
          "name": "",
          "type": "string"
        }
      ],
      "stateMutability": "view",
      "type": "function"
    },
    {
      "inputs": [],
      "name": "owner",
      "outputs": [
        {
          "internalType": "address",
          "name": "",
          "type": "address"
        }
      ],
      "stateMutability": "view",
      "type": "function"
    },
    {
      "inputs": [
        {
          "internalType": "uint256",
          "name": "tokenId",
          "type": "uint256"
        }
      ],
      "name": "ownerOf",
      "outputs": [
        {
          "internalType": "address",
          "name": "",
          "type": "address"
        }
      ],
      "stateMutability": "view",
      "type": "function"
    },
    {
      "inputs": [],
      "name": "renounceOwnership",
      "outputs": [],
      "stateMutability": "nonpayable",
      "type": "function"
    },
    {
      "inputs": [
        {
          "internalType": "bytes32",
          "name": "role",
          "type": "bytes32"
        },
        {
          "internalType": "address",
          "name": "account",
          "type": "address"
        }
      ],
      "name": "renounceRole",
      "outputs": [],
      "stateMutability": "nonpayable",
      "type": "function"
    },
    {
      "inputs": [
        {
          "internalType": "bytes32",
          "name": "role",
          "type": "bytes32"
        },
        {
          "internalType": "address",
          "name": "account",
          "type": "address"
        }
      ],
      "name": "revokeRole",
      "outputs": [],
      "stateMutability": "nonpayable",
      "type": "function"
    },
    {
      "inputs": [
        {
          "internalType": "address",
          "name": "from",
          "type": "address"
        },
        {
          "internalType": "address",
          "name": "to",
          "type": "address"
        },
        {
          "internalType": "uint256",
          "name": "tokenId",
          "type": "uint256"
        }
      ],
      "name": "safeTransferFrom",
      "outputs": [],
      "stateMutability": "nonpayable",
      "type": "function"
    },
    {
      "inputs": [
        {
          "internalType": "address",
          "name": "from",
          "type": "address"
        },
        {
          "internalType": "address",
          "name": "to",
          "type": "address"
        },
        {
          "internalType": "uint256",
          "name": "tokenId",
          "type": "uint256"
        },
        {
          "internalType": "bytes",
          "name": "_data",
          "type": "bytes"
        }
      ],
      "name": "safeTransferFrom",
      "outputs": [],
      "stateMutability": "nonpayable",
      "type": "function"
    },
    {
      "inputs": [
        {
          "internalType": "address",
          "name": "operator",
          "type": "address"
        },
        {
          "internalType": "bool",
          "name": "approved",
          "type": "bool"
        }
      ],
      "name": "setApprovalForAll",
      "outputs": [],
      "stateMutability": "nonpayable",
      "type": "function"
    },
    {
      "inputs": [
        {
          "internalType": "address",
          "name": "oneForgeAddr",
          "type": "address"
        }
      ],
      "name": "setOneForge",
      "outputs": [],
      "stateMutability": "nonpayable",
      "type": "function"
    },
    {
      "inputs": [
        {
          "internalType": "bytes4",
          "name": "interfaceId",
          "type": "bytes4"
        }
      ],
      "name": "supportsInterface",
      "outputs": [
        {
          "internalType": "bool",
          "name": "",
          "type": "bool"
        }
      ],
      "stateMutability": "view",
      "type": "function"
    },
    {
      "inputs": [],
      "name": "symbol",
      "outputs": [
        {
          "internalType": "string",
          "name": "",
          "type": "string"
        }
      ],
      "stateMutability": "view",
      "type": "function"
    },
    {
      "inputs": [
        {
          "internalType": "uint256",
          "name": "tokenId",
          "type": "uint256"
        }
      ],
      "name": "tokenURI",
      "outputs": [
        {
          "internalType": "string",
          "name": "",
          "type": "string"
        }
      ],
      "stateMutability": "view",
      "type": "function"
    },
    {
      "inputs": [
        {
          "internalType": "address",
          "name": "user",
          "type": "address"
        },
        {
          "internalType": "uint256",
          "name": "amount",
          "type": "uint256"
        }
      ],
      "name": "transferAmount",
      "outputs": [],
      "stateMutability": "nonpayable",
      "type": "function"
    },
    {
      "inputs": [
        {
          "internalType": "address",
          "name": "from",
          "type": "address"
        },
        {
          "internalType": "address",
          "name": "to",
          "type": "address"
        },
        {
          "internalType": "uint256",
          "name": "tokenId",
          "type": "uint256"
        }
      ],
      "name": "transferFrom",
      "outputs": [],
      "stateMutability": "nonpayable",
      "type": "function"
    },
    {
      "inputs": [
        {
          "internalType": "address",
          "name": "newOwner",
          "type": "address"
        }
      ],
      "name": "transferOwnership",
      "outputs": [],
      "stateMutability": "nonpayable",
      "type": "function"
    }
  ],
  "bytecode": "0x60a06040523480156200001157600080fd5b506040516200573c3803806200573c833981810160405281019062000037919062000476565b8282620000596200004d6200011460201b60201c565b6200011c60201b60201c565b8160019080519060200190620000719291906200033d565b5080600290805190602001906200008a9291906200033d565b5050508073ffffffffffffffffffffffffffffffffffffffff1660808173ffffffffffffffffffffffffffffffffffffffff1660601b81525050620000d96000801b33620001e060201b60201c565b6200010b7f9f2df0fed2c77648de5860a4cc508cd0818c85b8b8a1ab4ceeef8d981c8956a633620001e060201b60201c565b505050620006d0565b600033905090565b60008060009054906101000a900473ffffffffffffffffffffffffffffffffffffffff169050816000806101000a81548173ffffffffffffffffffffffffffffffffffffffff021916908373ffffffffffffffffffffffffffffffffffffffff1602179055508173ffffffffffffffffffffffffffffffffffffffff168173ffffffffffffffffffffffffffffffffffffffff167f8be0079c531659141344cd1fd0a4f28419497f9722a3daafe3b4186f6b6457e060405160405180910390a35050565b620001f28282620002d260201b60201c565b620002ce5760016007600084815260200190815260200160002060000160008373ffffffffffffffffffffffffffffffffffffffff1673ffffffffffffffffffffffffffffffffffffffff16815260200190815260200160002060006101000a81548160ff021916908315150217905550620002736200011460201b60201c565b73ffffffffffffffffffffffffffffffffffffffff168173ffffffffffffffffffffffffffffffffffffffff16837f2f8788117e7eff1d82e926ec794901d17c78024a50270940304540a733656f0d60405160405180910390a45b5050565b60006007600084815260200190815260200160002060000160008373ffffffffffffffffffffffffffffffffffffffff1673ffffffffffffffffffffffffffffffffffffffff16815260200190815260200160002060009054906101000a900460ff16905092915050565b8280546200034b90620005db565b90600052602060002090601f0160209004810192826200036f5760008555620003bb565b82601f106200038a57805160ff1916838001178555620003bb565b82800160010185558215620003bb579182015b82811115620003ba5782518255916020019190600101906200039d565b5b509050620003ca9190620003ce565b5090565b5b80821115620003e9576000816000905550600101620003cf565b5090565b600062000404620003fe8462000527565b620004fe565b9050828152602081018484840111156200041d57600080fd5b6200042a848285620005a5565b509392505050565b6000815190506200044381620006b6565b92915050565b600082601f8301126200045b57600080fd5b81516200046d848260208601620003ed565b91505092915050565b6000806000606084860312156200048c57600080fd5b600084015167ffffffffffffffff811115620004a757600080fd5b620004b58682870162000449565b935050602084015167ffffffffffffffff811115620004d357600080fd5b620004e18682870162000449565b9250506040620004f48682870162000432565b9150509250925092565b60006200050a6200051d565b905062000518828262000611565b919050565b6000604051905090565b600067ffffffffffffffff82111562000545576200054462000676565b5b6200055082620006a5565b9050602081019050919050565b60006200056a8262000585565b9050919050565b60006200057e826200055d565b9050919050565b600073ffffffffffffffffffffffffffffffffffffffff82169050919050565b60005b83811015620005c5578082015181840152602081019050620005a8565b83811115620005d5576000848401525b50505050565b60006002820490506001821680620005f457607f821691505b602082108114156200060b576200060a62000647565b5b50919050565b6200061c82620006a5565b810181811067ffffffffffffffff821117156200063e576200063d62000676565b5b80604052505050565b7f4e487b7100000000000000000000000000000000000000000000000000000000600052602260045260246000fd5b7f4e487b7100000000000000000000000000000000000000000000000000000000600052604160045260246000fd5b6000601f19601f8301169050919050565b620006c18162000571565b8114620006cd57600080fd5b50565b60805160601c615046620006f660003960008181611578015261235f01526150466000f3fe608060405234801561001057600080fd5b50600436106101e55760003560e01c806370a082311161010f578063a22cb465116100a2578063d547741f11610071578063d547741f146105a2578063d7081e03146105be578063e985e9c5146105da578063f2fde38b1461060a576101e5565b8063a22cb4651461051c578063b88d4fde14610538578063c87b56dd14610554578063d539139314610584576101e5565b806391d14854116100de57806391d1485414610480578063959c45b7146104b057806395d89b41146104e0578063a217fddf146104fe576101e5565b806370a08231146103f6578063715018a6146104265780637efd9112146104305780638da5cb5b14610462576101e5565b806336568abe1161018757806354879eff1161015657806354879eff1461035c57806355064d85146103785780636352211e146103a8578063676dd563146103d8576101e5565b806336568abe146102ec57806342842e0e1461030857806342966c68146103245780634b5ec61214610340576101e5565b8063095ea7b3116101c3578063095ea7b31461026857806323b872dd14610284578063248a9ca3146102a05780632f2ff15d146102d0576101e5565b806301ffc9a7146101ea57806306fdde031461021a578063081812fc14610238575b600080fd5b61020460048036038101906101ff9190613827565b610626565b6040516102119190613f84565b60405180910390f35b610222610638565b60405161022f9190614008565b60405180910390f35b610252600480360381019061024d9190613879565b6106ca565b60405161025f9190613ebd565b60405180910390f35b610282600480360381019061027d919061375d565b61074f565b005b61029e6004803603810190610299919061356f565b610867565b005b6102ba60048036038101906102b591906137c2565b6108c7565b6040516102c79190613f9f565b60405180910390f35b6102ea60048036038101906102e591906137eb565b6108e7565b005b610306600480360381019061030191906137eb565b610910565b005b610322600480360381019061031d919061356f565b610993565b005b61033e60048036038101906103399190613879565b6109b3565b005b61035a6004803603810190610355919061350a565b610a4f565b005b61037660048036038101906103719190613675565b610b7f565b005b610392600480360381019061038d91906138a2565b610ff8565b60405161039f9190613f84565b60405180910390f35b6103c260048036038101906103bd9190613879565b61101b565b6040516103cf9190613ebd565b60405180910390f35b6103e06110cd565b6040516103ed91906143aa565b60405180910390f35b610410600480360381019061040b919061350a565b6110d7565b60405161041d91906143aa565b60405180910390f35b61042e61118f565b005b61044a60048036038101906104459190613879565b611217565b604051610459939291906143c5565b60405180910390f35b61046a611232565b6040516104779190613ebd565b60405180910390f35b61049a600480360381019061049591906137eb565b61125b565b6040516104a79190613f84565b60405180910390f35b6104ca60048036038101906104c591906138a2565b6112c6565b6040516104d791906143aa565b60405180910390f35b6104e86112dc565b6040516104f59190614008565b60405180910390f35b61050661136e565b6040516105139190613f9f565b60405180910390f35b61053660048036038101906105319190613639565b611375565b005b610552600480360381019061054d91906135be565b61138b565b005b61056e60048036038101906105699190613879565b6113ed565b60405161057b9190614008565b60405180910390f35b61058c611494565b6040516105999190613f9f565b60405180910390f35b6105bc60048036038101906105b791906137eb565b6114b8565b005b6105d860048036038101906105d3919061375d565b6114e1565b005b6105f460048036038101906105ef9190613533565b6115c0565b6040516106019190613f84565b60405180910390f35b610624600480360381019061061f919061350a565b611654565b005b60006106318261174c565b9050919050565b6060600180546106479061469f565b80601f01602080910402602001604051908101604052809291908181526020018280546106739061469f565b80156106c05780601f10610695576101008083540402835291602001916106c0565b820191906000526020600020905b8154815290600101906020018083116106a357829003601f168201915b5050505050905090565b60006106d5826117c6565b610714576040517f08c379a000000000000000000000000000000000000000000000000000000000815260040161070b9061426a565b60405180910390fd5b6005600083815260200190815260200160002060009054906101000a900473ffffffffffffffffffffffffffffffffffffffff169050919050565b600061075a8261101b565b90508073ffffffffffffffffffffffffffffffffffffffff168373ffffffffffffffffffffffffffffffffffffffff1614156107cb576040517f08c379a00000000000000000000000000000000000000000000000000000000081526004016107c2906142ea565b60405180910390fd5b8073ffffffffffffffffffffffffffffffffffffffff166107ea611832565b73ffffffffffffffffffffffffffffffffffffffff161480610819575061081881610813611832565b6115c0565b5b610858576040517f08c379a000000000000000000000000000000000000000000000000000000000815260040161084f906141ca565b60405180910390fd5b610862838361183a565b505050565b610878610872611832565b826118f3565b6108b7576040517f08c379a00000000000000000000000000000000000000000000000000000000081526004016108ae9061430a565b60405180910390fd5b6108c28383836119d1565b505050565b600060076000838152602001908152602001600020600101549050919050565b6108f0826108c7565b610901816108fc611832565b611c38565b61090b8383611cd5565b505050565b610918611832565b73ffffffffffffffffffffffffffffffffffffffff168173ffffffffffffffffffffffffffffffffffffffff1614610985576040517f08c379a000000000000000000000000000000000000000000000000000000000815260040161097c9061438a565b60405180910390fd5b61098f8282611db6565b5050565b6109ae8383836040518060200160405280600081525061138b565b505050565b600860009054906101000a900473ffffffffffffffffffffffffffffffffffffffff1673ffffffffffffffffffffffffffffffffffffffff163373ffffffffffffffffffffffffffffffffffffffff1614610a43576040517f08c379a0000000000000000000000000000000000000000000000000000000008152600401610a3a9061408a565b60405180910390fd5b610a4c81611e98565b50565b610a57611832565b73ffffffffffffffffffffffffffffffffffffffff16610a75611232565b73ffffffffffffffffffffffffffffffffffffffff1614610acb576040517f08c379a0000000000000000000000000000000000000000000000000000000008152600401610ac29061428a565b60405180910390fd5b600073ffffffffffffffffffffffffffffffffffffffff168173ffffffffffffffffffffffffffffffffffffffff161415610b3b576040517f08c379a0000000000000000000000000000000000000000000000000000000008152600401610b329061418a565b60405180910390fd5b80600860006101000a81548173ffffffffffffffffffffffffffffffffffffffff021916908373ffffffffffffffffffffffffffffffffffffffff16021790555050565b7f9f2df0fed2c77648de5860a4cc508cd0818c85b8b8a1ab4ceeef8d981c8956a6610bb181610bac611832565b611c38565b600073ffffffffffffffffffffffffffffffffffffffff168a73ffffffffffffffffffffffffffffffffffffffff161415610c21576040517f08c379a0000000000000000000000000000000000000000000000000000000008152600401610c189061434a565b60405180910390fd5b6000878790501415610c68576040517f08c379a0000000000000000000000000000000000000000000000000000000008152600401610c5f906141aa565b60405180910390fd5b848490508787905014610cb0576040517f08c379a0000000000000000000000000000000000000000000000000000000008152600401610ca79061422a565b60405180910390fd5b828290508787905014610cf8576040517f08c379a0000000000000000000000000000000000000000000000000000000008152600401610cef9061422a565b60405180910390fd5b828290508585905014610d40576040517f08c379a0000000000000000000000000000000000000000000000000000000008152600401610d379061422a565b60405180910390fd5b600087879050905060005b81811015610fe0576000610e1d8a8a84818110610d91577f4e487b7100000000000000000000000000000000000000000000000000000000600052603260045260246000fd5b90506020020135898985818110610dd1577f4e487b7100000000000000000000000000000000000000000000000000000000600052603260045260246000fd5b90506020020135888886818110610e11577f4e487b7100000000000000000000000000000000000000000000000000000000600052603260045260246000fd5b90506020020135611fb5565b9050610e28816117c6565b15610e68576040517f08c379a0000000000000000000000000000000000000000000000000000000008152600401610e5f906142aa565b60405180910390fd5b610e728d8261213b565b610ec0818d8d8080601f016020809104026020016040519081016040528093929190818152602001838380828437600081840152601f19601f82011690508083019250505050505050612315565b808d73ffffffffffffffffffffffffffffffffffffffff167ff809c8718679b83068b343d3112c3b05cfb05913d541eda49ea800d2635d5a678e8e8e8e88818110610f34577f4e487b7100000000000000000000000000000000000000000000000000000000600052603260045260246000fd5b905060200201358d8d89818110610f74577f4e487b7100000000000000000000000000000000000000000000000000000000600052603260045260246000fd5b905060200201358c8c8a818110610fb4577f4e487b7100000000000000000000000000000000000000000000000000000000600052603260045260246000fd5b90506020020135604051610fcc959493929190613fba565b60405180910390a381600101915050610d4b565b50610feb8b82612341565b5050505050505050505050565b600080611006858585611fb5565b9050611011816117c6565b9150509392505050565b6000806003600084815260200190815260200160002060009054906101000a900473ffffffffffffffffffffffffffffffffffffffff169050600073ffffffffffffffffffffffffffffffffffffffff168173ffffffffffffffffffffffffffffffffffffffff1614156110c4576040517f08c379a00000000000000000000000000000000000000000000000000000000081526004016110bb9061420a565b60405180910390fd5b80915050919050565b650574fbde600081565b60008073ffffffffffffffffffffffffffffffffffffffff168273ffffffffffffffffffffffffffffffffffffffff161415611148576040517f08c379a000000000000000000000000000000000000000000000000000000000815260040161113f906141ea565b60405180910390fd5b600460008373ffffffffffffffffffffffffffffffffffffffff1673ffffffffffffffffffffffffffffffffffffffff168152602001908152602001600020549050919050565b611197611832565b73ffffffffffffffffffffffffffffffffffffffff166111b5611232565b73ffffffffffffffffffffffffffffffffffffffff161461120b576040517f08c379a00000000000000000000000000000000000000000000000000000000081526004016112029061428a565b60405180910390fd5b61121560006123a9565b565b60008060006112258461246d565b9250925092509193909250565b60008060009054906101000a900473ffffffffffffffffffffffffffffffffffffffff16905090565b60006007600084815260200190815260200160002060000160008373ffffffffffffffffffffffffffffffffffffffff1673ffffffffffffffffffffffffffffffffffffffff16815260200190815260200160002060009054906101000a900460ff16905092915050565b60006112d3848484611fb5565b90509392505050565b6060600280546112eb9061469f565b80601f01602080910402602001604051908101604052809291908181526020018280546113179061469f565b80156113645780601f1061133957610100808354040283529160200191611364565b820191906000526020600020905b81548152906001019060200180831161134757829003601f168201915b5050505050905090565b6000801b81565b611387611380611832565b83836125d8565b5050565b61139c611396611832565b836118f3565b6113db576040517f08c379a00000000000000000000000000000000000000000000000000000000081526004016113d29061430a565b60405180910390fd5b6113e784848484612745565b50505050565b60606113f8826117c6565b611437576040517f08c379a000000000000000000000000000000000000000000000000000000000815260040161142e906142ca565b60405180910390fd5b60006114416127a1565b90506000815111611461576040518060200160405280600081525061148c565b8061146b846127b8565b60405160200161147c929190613e5f565b6040516020818303038152906040525b915050919050565b7f9f2df0fed2c77648de5860a4cc508cd0818c85b8b8a1ab4ceeef8d981c8956a681565b6114c1826108c7565b6114d2816114cd611832565b611c38565b6114dc8383611db6565b505050565b600860009054906101000a900473ffffffffffffffffffffffffffffffffffffffff1673ffffffffffffffffffffffffffffffffffffffff163373ffffffffffffffffffffffffffffffffffffffff1614611571576040517f08c379a00000000000000000000000000000000000000000000000000000000081526004016115689061408a565b60405180910390fd5b6115bc82827f000000000000000000000000000000000000000000000000000000000000000073ffffffffffffffffffffffffffffffffffffffff166129659092919063ffffffff16565b5050565b6000600660008473ffffffffffffffffffffffffffffffffffffffff1673ffffffffffffffffffffffffffffffffffffffff16815260200190815260200160002060008373ffffffffffffffffffffffffffffffffffffffff1673ffffffffffffffffffffffffffffffffffffffff16815260200190815260200160002060009054906101000a900460ff16905092915050565b61165c611832565b73ffffffffffffffffffffffffffffffffffffffff1661167a611232565b73ffffffffffffffffffffffffffffffffffffffff16146116d0576040517f08c379a00000000000000000000000000000000000000000000000000000000081526004016116c79061428a565b60405180910390fd5b600073ffffffffffffffffffffffffffffffffffffffff168173ffffffffffffffffffffffffffffffffffffffff161415611740576040517f08c379a00000000000000000000000000000000000000000000000000000000081526004016117379061406a565b60405180910390fd5b611749816123a9565b50565b60007f7965db0b000000000000000000000000000000000000000000000000000000007bffffffffffffffffffffffffffffffffffffffffffffffffffffffff1916827bffffffffffffffffffffffffffffffffffffffffffffffffffffffff191614806117bf57506117be826129eb565b5b9050919050565b60008073ffffffffffffffffffffffffffffffffffffffff166003600084815260200190815260200160002060009054906101000a900473ffffffffffffffffffffffffffffffffffffffff1673ffffffffffffffffffffffffffffffffffffffff1614159050919050565b600033905090565b816005600083815260200190815260200160002060006101000a81548173ffffffffffffffffffffffffffffffffffffffff021916908373ffffffffffffffffffffffffffffffffffffffff160217905550808273ffffffffffffffffffffffffffffffffffffffff166118ad8361101b565b73ffffffffffffffffffffffffffffffffffffffff167f8c5be1e5ebec7d5bd14f71427d1e84f3dd0314c0f7b2291e5b200ac8c7c3b92560405160405180910390a45050565b60006118fe826117c6565b61193d576040517f08c379a00000000000000000000000000000000000000000000000000000000081526004016119349061416a565b60405180910390fd5b60006119488361101b565b90508073ffffffffffffffffffffffffffffffffffffffff168473ffffffffffffffffffffffffffffffffffffffff1614806119b757508373ffffffffffffffffffffffffffffffffffffffff1661199f846106ca565b73ffffffffffffffffffffffffffffffffffffffff16145b806119c857506119c781856115c0565b5b91505092915050565b8273ffffffffffffffffffffffffffffffffffffffff166119f18261101b565b73ffffffffffffffffffffffffffffffffffffffff1614611a47576040517f08c379a0000000000000000000000000000000000000000000000000000000008152600401611a3e906140aa565b60405180910390fd5b600073ffffffffffffffffffffffffffffffffffffffff168273ffffffffffffffffffffffffffffffffffffffff161415611ab7576040517f08c379a0000000000000000000000000000000000000000000000000000000008152600401611aae9061410a565b60405180910390fd5b611ac2838383612acd565b611acd60008261183a565b6001600460008573ffffffffffffffffffffffffffffffffffffffff1673ffffffffffffffffffffffffffffffffffffffff1681526020019081526020016000206000828254611b1d9190614581565b925050819055506001600460008473ffffffffffffffffffffffffffffffffffffffff1673ffffffffffffffffffffffffffffffffffffffff1681526020019081526020016000206000828254611b7491906144a0565b92505081905550816003600083815260200190815260200160002060006101000a81548173ffffffffffffffffffffffffffffffffffffffff021916908373ffffffffffffffffffffffffffffffffffffffff160217905550808273ffffffffffffffffffffffffffffffffffffffff168473ffffffffffffffffffffffffffffffffffffffff167fddf252ad1be2c89b69c2b068fc378daa952ba7f163c4a11628f55a4df523b3ef60405160405180910390a4611c33838383612ad2565b505050565b611c42828261125b565b611cd157611c678173ffffffffffffffffffffffffffffffffffffffff166014612ad7565b611c758360001c6020612ad7565b604051602001611c86929190613e83565b6040516020818303038152906040526040517f08c379a0000000000000000000000000000000000000000000000000000000008152600401611cc89190614008565b60405180910390fd5b5050565b611cdf828261125b565b611db25760016007600084815260200190815260200160002060000160008373ffffffffffffffffffffffffffffffffffffffff1673ffffffffffffffffffffffffffffffffffffffff16815260200190815260200160002060006101000a81548160ff021916908315150217905550611d57611832565b73ffffffffffffffffffffffffffffffffffffffff168173ffffffffffffffffffffffffffffffffffffffff16837f2f8788117e7eff1d82e926ec794901d17c78024a50270940304540a733656f0d60405160405180910390a45b5050565b611dc0828261125b565b15611e945760006007600084815260200190815260200160002060000160008373ffffffffffffffffffffffffffffffffffffffff1673ffffffffffffffffffffffffffffffffffffffff16815260200190815260200160002060006101000a81548160ff021916908315150217905550611e39611832565b73ffffffffffffffffffffffffffffffffffffffff168173ffffffffffffffffffffffffffffffffffffffff16837ff6391f5c32d9c69d2a47ea670b442974b53935d1edc7fd64eb21e047a839171b60405160405180910390a45b5050565b6000611ea38261101b565b9050611eb181600084612acd565b611ebc60008361183a565b6001600460008373ffffffffffffffffffffffffffffffffffffffff1673ffffffffffffffffffffffffffffffffffffffff1681526020019081526020016000206000828254611f0c9190614581565b925050819055506003600083815260200190815260200160002060006101000a81549073ffffffffffffffffffffffffffffffffffffffff021916905581600073ffffffffffffffffffffffffffffffffffffffff168273ffffffffffffffffffffffffffffffffffffffff167fddf252ad1be2c89b69c2b068fc378daa952ba7f163c4a11628f55a4df523b3ef60405160405180910390a4611fb181600084612ad2565b5050565b6000836000108015611fc8575060328411155b612007576040517f08c379a0000000000000000000000000000000000000000000000000000000008152600401611ffe906140ea565b60405180910390fd5b826000108015612018575060328311155b612057576040517f08c379a000000000000000000000000000000000000000000000000000000000815260040161204e906140ea565b60405180910390fd5b816000108015612068575060328211155b6120a7576040517f08c379a000000000000000000000000000000000000000000000000000000000815260040161209e906140ea565b60405180910390fd5b6000600190506000600160326120bd91906144a0565b90506000600160326120cf91906144a0565b600160326120dd91906144a0565b6120e79190614527565b905060008086836120f89190614527565b88856121049190614527565b8a876121109190614527565b61211a91906144a0565b61212491906144a0565b61212e91906144a0565b9450505050509392505050565b600073ffffffffffffffffffffffffffffffffffffffff168273ffffffffffffffffffffffffffffffffffffffff1614156121ab576040517f08c379a00000000000000000000000000000000000000000000000000000000081526004016121a29061424a565b60405180910390fd5b6121b4816117c6565b156121f4576040517f08c379a00000000000000000000000000000000000000000000000000000000081526004016121eb906140ca565b60405180910390fd5b61220060008383612acd565b6001600460008473ffffffffffffffffffffffffffffffffffffffff1673ffffffffffffffffffffffffffffffffffffffff168152602001908152602001600020600082825461225091906144a0565b92505081905550816003600083815260200190815260200160002060006101000a81548173ffffffffffffffffffffffffffffffffffffffff021916908373ffffffffffffffffffffffffffffffffffffffff160217905550808273ffffffffffffffffffffffffffffffffffffffff16600073ffffffffffffffffffffffffffffffffffffffff167fddf252ad1be2c89b69c2b068fc378daa952ba7f163c4a11628f55a4df523b3ef60405160405180910390a461231160008383612ad2565b5050565b8060096000848152602001908152602001600020908051906020019061233c9291906132d8565b505050565b600081650574fbde60006123559190614527565b90506123a48330837f000000000000000000000000000000000000000000000000000000000000000073ffffffffffffffffffffffffffffffffffffffff16612dd1909392919063ffffffff16565b505050565b60008060009054906101000a900473ffffffffffffffffffffffffffffffffffffffff169050816000806101000a81548173ffffffffffffffffffffffffffffffffffffffff021916908373ffffffffffffffffffffffffffffffffffffffff1602179055508173ffffffffffffffffffffffffffffffffffffffff168173ffffffffffffffffffffffffffffffffffffffff167f8be0079c531659141344cd1fd0a4f28419497f9722a3daafe3b4186f6b6457e060405160405180910390a35050565b60008060006001603261248091906144a0565b8461248b919061474b565b92506001603261249b91906144a0565b846124a691906144f6565b9350600160326124b691906144a0565b846124c1919061474b565b9150600160326124d191906144a0565b846124dc91906144f6565b93508390508260001080156124f2575060328311155b612531576040517f08c379a0000000000000000000000000000000000000000000000000000000008152600401612528906140ea565b60405180910390fd5b816000108015612542575060328211155b612581576040517f08c379a0000000000000000000000000000000000000000000000000000000008152600401612578906140ea565b60405180910390fd5b806000108015612592575060328111155b6125d1576040517f08c379a00000000000000000000000000000000000000000000000000000000081526004016125c8906140ea565b60405180910390fd5b9193909250565b8173ffffffffffffffffffffffffffffffffffffffff168373ffffffffffffffffffffffffffffffffffffffff161415612647576040517f08c379a000000000000000000000000000000000000000000000000000000000815260040161263e9061412a565b60405180910390fd5b80600660008573ffffffffffffffffffffffffffffffffffffffff1673ffffffffffffffffffffffffffffffffffffffff16815260200190815260200160002060008473ffffffffffffffffffffffffffffffffffffffff1673ffffffffffffffffffffffffffffffffffffffff16815260200190815260200160002060006101000a81548160ff0219169083151502179055508173ffffffffffffffffffffffffffffffffffffffff168373ffffffffffffffffffffffffffffffffffffffff167f17307eab39ab6107e8899845ad3d59bd9653f200f220920489ca2b5937696c31836040516127389190613f84565b60405180910390a3505050565b6127508484846119d1565b61275c84848484612e5a565b61279b576040517f08c379a00000000000000000000000000000000000000000000000000000000081526004016127929061404a565b60405180910390fd5b50505050565b606060405180602001604052806000815250905090565b60606000821415612800576040518060400160405280600181526020017f30000000000000000000000000000000000000000000000000000000000000008152509050612960565b600082905060005b6000821461283257808061281b90614702565b915050600a8261282b91906144f6565b9150612808565b60008167ffffffffffffffff811115612874577f4e487b7100000000000000000000000000000000000000000000000000000000600052604160045260246000fd5b6040519080825280601f01601f1916602001820160405280156128a65781602001600182028036833780820191505090505b5090505b60008514612959576001826128bf9190614581565b9150600a856128ce919061474b565b60306128da91906144a0565b60f81b818381518110612916577f4e487b7100000000000000000000000000000000000000000000000000000000600052603260045260246000fd5b60200101907effffffffffffffffffffffffffffffffffffffffffffffffffffffffffffff1916908160001a905350600a8561295291906144f6565b94506128aa565b8093505050505b919050565b6129e68363a9059cbb60e01b8484604051602401612984929190613f5b565b604051602081830303815290604052907bffffffffffffffffffffffffffffffffffffffffffffffffffffffff19166020820180517bffffffffffffffffffffffffffffffffffffffffffffffffffffffff8381831617835250505050612ff1565b505050565b60007f80ac58cd000000000000000000000000000000000000000000000000000000007bffffffffffffffffffffffffffffffffffffffffffffffffffffffff1916827bffffffffffffffffffffffffffffffffffffffffffffffffffffffff19161480612ab657507f5b5e139f000000000000000000000000000000000000000000000000000000007bffffffffffffffffffffffffffffffffffffffffffffffffffffffff1916827bffffffffffffffffffffffffffffffffffffffffffffffffffffffff1916145b80612ac65750612ac5826130b8565b5b9050919050565b505050565b505050565b606060006002836002612aea9190614527565b612af491906144a0565b67ffffffffffffffff811115612b33577f4e487b7100000000000000000000000000000000000000000000000000000000600052604160045260246000fd5b6040519080825280601f01601f191660200182016040528015612b655781602001600182028036833780820191505090505b5090507f300000000000000000000000000000000000000000000000000000000000000081600081518110612bc3577f4e487b7100000000000000000000000000000000000000000000000000000000600052603260045260246000fd5b60200101907effffffffffffffffffffffffffffffffffffffffffffffffffffffffffffff1916908160001a9053507f780000000000000000000000000000000000000000000000000000000000000081600181518110612c4d577f4e487b7100000000000000000000000000000000000000000000000000000000600052603260045260246000fd5b60200101907effffffffffffffffffffffffffffffffffffffffffffffffffffffffffffff1916908160001a90535060006001846002612c8d9190614527565b612c9791906144a0565b90505b6001811115612d83577f3031323334353637383961626364656600000000000000000000000000000000600f861660108110612cff577f4e487b7100000000000000000000000000000000000000000000000000000000600052603260045260246000fd5b1a60f81b828281518110612d3c577f4e487b7100000000000000000000000000000000000000000000000000000000600052603260045260246000fd5b60200101907effffffffffffffffffffffffffffffffffffffffffffffffffffffffffffff1916908160001a905350600485901c945080612d7c90614675565b9050612c9a565b5060008414612dc7576040517f08c379a0000000000000000000000000000000000000000000000000000000008152600401612dbe9061402a565b60405180910390fd5b8091505092915050565b612e54846323b872dd60e01b858585604051602401612df293929190613ed8565b604051602081830303815290604052907bffffffffffffffffffffffffffffffffffffffffffffffffffffffff19166020820180517bffffffffffffffffffffffffffffffffffffffffffffffffffffffff8381831617835250505050612ff1565b50505050565b6000612e7b8473ffffffffffffffffffffffffffffffffffffffff16613122565b15612fe4578373ffffffffffffffffffffffffffffffffffffffff1663150b7a02612ea4611832565b8786866040518563ffffffff1660e01b8152600401612ec69493929190613f0f565b602060405180830381600087803b158015612ee057600080fd5b505af1925050508015612f1157506040513d601f19601f82011682018060405250810190612f0e9190613850565b60015b612f94573d8060008114612f41576040519150601f19603f3d011682016040523d82523d6000602084013e612f46565b606091505b50600081511415612f8c576040517f08c379a0000000000000000000000000000000000000000000000000000000008152600401612f839061404a565b60405180910390fd5b805181602001fd5b63150b7a0260e01b7bffffffffffffffffffffffffffffffffffffffffffffffffffffffff1916817bffffffffffffffffffffffffffffffffffffffffffffffffffffffff191614915050612fe9565b600190505b949350505050565b6000613053826040518060400160405280602081526020017f5361666545524332303a206c6f772d6c6576656c2063616c6c206661696c65648152508573ffffffffffffffffffffffffffffffffffffffff166131459092919063ffffffff16565b90506000815111156130b357808060200190518101906130739190613799565b6130b2576040517f08c379a00000000000000000000000000000000000000000000000000000000081526004016130a99061436a565b60405180910390fd5b5b505050565b60007f01ffc9a7000000000000000000000000000000000000000000000000000000007bffffffffffffffffffffffffffffffffffffffffffffffffffffffff1916827bffffffffffffffffffffffffffffffffffffffffffffffffffffffff1916149050919050565b6000808273ffffffffffffffffffffffffffffffffffffffff163b119050919050565b6060613154848460008561315d565b90509392505050565b6060824710156131a2576040517f08c379a00000000000000000000000000000000000000000000000000000000081526004016131999061414a565b60405180910390fd5b6131ab85613122565b6131ea576040517f08c379a00000000000000000000000000000000000000000000000000000000081526004016131e19061432a565b60405180910390fd5b6000808673ffffffffffffffffffffffffffffffffffffffff1685876040516132139190613e48565b60006040518083038185875af1925050503d8060008114613250576040519150601f19603f3d011682016040523d82523d6000602084013e613255565b606091505b5091509150613265828286613271565b92505050949350505050565b60608315613281578290506132d1565b6000835111156132945782518084602001fd5b816040517f08c379a00000000000000000000000000000000000000000000000000000000081526004016132c89190614008565b60405180910390fd5b9392505050565b8280546132e49061469f565b90600052602060002090601f016020900481019282613306576000855561334d565b82601f1061331f57805160ff191683800117855561334d565b8280016001018555821561334d579182015b8281111561334c578251825591602001919060010190613331565b5b50905061335a919061335e565b5090565b5b8082111561337757600081600090555060010161335f565b5090565b600061338e61338984614421565b6143fc565b9050828152602081018484840111156133a657600080fd5b6133b1848285614633565b509392505050565b6000813590506133c881614f9d565b92915050565b60008083601f8401126133e057600080fd5b8235905067ffffffffffffffff8111156133f957600080fd5b60208301915083602082028301111561341157600080fd5b9250929050565b60008135905061342781614fb4565b92915050565b60008151905061343c81614fb4565b92915050565b60008135905061345181614fcb565b92915050565b60008135905061346681614fe2565b92915050565b60008151905061347b81614fe2565b92915050565b600082601f83011261349257600080fd5b81356134a284826020860161337b565b91505092915050565b60008083601f8401126134bd57600080fd5b8235905067ffffffffffffffff8111156134d657600080fd5b6020830191508360018202830111156134ee57600080fd5b9250929050565b60008135905061350481614ff9565b92915050565b60006020828403121561351c57600080fd5b600061352a848285016133b9565b91505092915050565b6000806040838503121561354657600080fd5b6000613554858286016133b9565b9250506020613565858286016133b9565b9150509250929050565b60008060006060848603121561358457600080fd5b6000613592868287016133b9565b93505060206135a3868287016133b9565b92505060406135b4868287016134f5565b9150509250925092565b600080600080608085870312156135d457600080fd5b60006135e2878288016133b9565b94505060206135f3878288016133b9565b9350506040613604878288016134f5565b925050606085013567ffffffffffffffff81111561362157600080fd5b61362d87828801613481565b91505092959194509250565b6000806040838503121561364c57600080fd5b600061365a858286016133b9565b925050602061366b85828601613418565b9150509250929050565b600080600080600080600080600060a08a8c03121561369357600080fd5b60006136a18c828d016133b9565b99505060208a013567ffffffffffffffff8111156136be57600080fd5b6136ca8c828d016134ab565b985098505060408a013567ffffffffffffffff8111156136e957600080fd5b6136f58c828d016133ce565b965096505060608a013567ffffffffffffffff81111561371457600080fd5b6137208c828d016133ce565b945094505060808a013567ffffffffffffffff81111561373f57600080fd5b61374b8c828d016133ce565b92509250509295985092959850929598565b6000806040838503121561377057600080fd5b600061377e858286016133b9565b925050602061378f858286016134f5565b9150509250929050565b6000602082840312156137ab57600080fd5b60006137b98482850161342d565b91505092915050565b6000602082840312156137d457600080fd5b60006137e284828501613442565b91505092915050565b600080604083850312156137fe57600080fd5b600061380c85828601613442565b925050602061381d858286016133b9565b9150509250929050565b60006020828403121561383957600080fd5b600061384784828501613457565b91505092915050565b60006020828403121561386257600080fd5b60006138708482850161346c565b91505092915050565b60006020828403121561388b57600080fd5b6000613899848285016134f5565b91505092915050565b6000806000606084860312156138b757600080fd5b60006138c5868287016134f5565b93505060206138d6868287016134f5565b92505060406138e7868287016134f5565b9150509250925092565b6138fa816145b5565b82525050565b613909816145c7565b82525050565b613918816145d3565b82525050565b600061392982614452565b6139338185614468565b9350613943818560208601614642565b61394c81614838565b840191505092915050565b600061396282614452565b61396c8185614479565b935061397c818560208601614642565b80840191505092915050565b60006139948385614484565b93506139a1838584614633565b6139aa83614838565b840190509392505050565b60006139c08261445d565b6139ca8185614484565b93506139da818560208601614642565b6139e381614838565b840191505092915050565b60006139f98261445d565b613a038185614495565b9350613a13818560208601614642565b80840191505092915050565b6000613a2c602083614484565b9150613a3782614849565b602082019050919050565b6000613a4f603283614484565b9150613a5a82614872565b604082019050919050565b6000613a72602683614484565b9150613a7d826148c1565b604082019050919050565b6000613a95601783614484565b9150613aa082614910565b602082019050919050565b6000613ab8602583614484565b9150613ac382614939565b604082019050919050565b6000613adb601c83614484565b9150613ae682614988565b602082019050919050565b6000613afe601f83614484565b9150613b09826149b1565b602082019050919050565b6000613b21602483614484565b9150613b2c826149da565b604082019050919050565b6000613b44601983614484565b9150613b4f82614a29565b602082019050919050565b6000613b67602683614484565b9150613b7282614a52565b604082019050919050565b6000613b8a602c83614484565b9150613b9582614aa1565b604082019050919050565b6000613bad601683614484565b9150613bb882614af0565b602082019050919050565b6000613bd0602083614484565b9150613bdb82614b19565b602082019050919050565b6000613bf3603883614484565b9150613bfe82614b42565b604082019050919050565b6000613c16602a83614484565b9150613c2182614b91565b604082019050919050565b6000613c39602983614484565b9150613c4482614be0565b604082019050919050565b6000613c5c602783614484565b9150613c6782614c2f565b604082019050919050565b6000613c7f602083614484565b9150613c8a82614c7e565b602082019050919050565b6000613ca2602c83614484565b9150613cad82614ca7565b604082019050919050565b6000613cc5602083614484565b9150613cd082614cf6565b602082019050919050565b6000613ce8602383614484565b9150613cf382614d1f565b604082019050919050565b6000613d0b602f83614484565b9150613d1682614d6e565b604082019050919050565b6000613d2e602183614484565b9150613d3982614dbd565b604082019050919050565b6000613d51603183614484565b9150613d5c82614e0c565b604082019050919050565b6000613d74601d83614484565b9150613d7f82614e5b565b602082019050919050565b6000613d97601483614484565b9150613da282614e84565b602082019050919050565b6000613dba601783614495565b9150613dc582614ead565b601782019050919050565b6000613ddd602a83614484565b9150613de882614ed6565b604082019050919050565b6000613e00601183614495565b9150613e0b82614f25565b601182019050919050565b6000613e23602f83614484565b9150613e2e82614f4e565b604082019050919050565b613e4281614629565b82525050565b6000613e548284613957565b915081905092915050565b6000613e6b82856139ee565b9150613e7782846139ee565b91508190509392505050565b6000613e8e82613dad565b9150613e9a82856139ee565b9150613ea582613df3565b9150613eb182846139ee565b91508190509392505050565b6000602082019050613ed260008301846138f1565b92915050565b6000606082019050613eed60008301866138f1565b613efa60208301856138f1565b613f076040830184613e39565b949350505050565b6000608082019050613f2460008301876138f1565b613f3160208301866138f1565b613f3e6040830185613e39565b8181036060830152613f50818461391e565b905095945050505050565b6000604082019050613f7060008301856138f1565b613f7d6020830184613e39565b9392505050565b6000602082019050613f996000830184613900565b92915050565b6000602082019050613fb4600083018461390f565b92915050565b60006080820190508181036000830152613fd5818789613988565b9050613fe46020830186613e39565b613ff16040830185613e39565b613ffe6060830184613e39565b9695505050505050565b6000602082019050818103600083015261402281846139b5565b905092915050565b6000602082019050818103600083015261404381613a1f565b9050919050565b6000602082019050818103600083015261406381613a42565b9050919050565b6000602082019050818103600083015261408381613a65565b9050919050565b600060208201905081810360008301526140a381613a88565b9050919050565b600060208201905081810360008301526140c381613aab565b9050919050565b600060208201905081810360008301526140e381613ace565b9050919050565b6000602082019050818103600083015261410381613af1565b9050919050565b6000602082019050818103600083015261412381613b14565b9050919050565b6000602082019050818103600083015261414381613b37565b9050919050565b6000602082019050818103600083015261416381613b5a565b9050919050565b6000602082019050818103600083015261418381613b7d565b9050919050565b600060208201905081810360008301526141a381613ba0565b9050919050565b600060208201905081810360008301526141c381613bc3565b9050919050565b600060208201905081810360008301526141e381613be6565b9050919050565b6000602082019050818103600083015261420381613c09565b9050919050565b6000602082019050818103600083015261422381613c2c565b9050919050565b6000602082019050818103600083015261424381613c4f565b9050919050565b6000602082019050818103600083015261426381613c72565b9050919050565b6000602082019050818103600083015261428381613c95565b9050919050565b600060208201905081810360008301526142a381613cb8565b9050919050565b600060208201905081810360008301526142c381613cdb565b9050919050565b600060208201905081810360008301526142e381613cfe565b9050919050565b6000602082019050818103600083015261430381613d21565b9050919050565b6000602082019050818103600083015261432381613d44565b9050919050565b6000602082019050818103600083015261434381613d67565b9050919050565b6000602082019050818103600083015261436381613d8a565b9050919050565b6000602082019050818103600083015261438381613dd0565b9050919050565b600060208201905081810360008301526143a381613e16565b9050919050565b60006020820190506143bf6000830184613e39565b92915050565b60006060820190506143da6000830186613e39565b6143e76020830185613e39565b6143f46040830184613e39565b949350505050565b6000614406614417565b905061441282826146d1565b919050565b6000604051905090565b600067ffffffffffffffff82111561443c5761443b614809565b5b61444582614838565b9050602081019050919050565b600081519050919050565b600081519050919050565b600082825260208201905092915050565b600081905092915050565b600082825260208201905092915050565b600081905092915050565b60006144ab82614629565b91506144b683614629565b9250827fffffffffffffffffffffffffffffffffffffffffffffffffffffffffffffffff038211156144eb576144ea61477c565b5b828201905092915050565b600061450182614629565b915061450c83614629565b92508261451c5761451b6147ab565b5b828204905092915050565b600061453282614629565b915061453d83614629565b9250817fffffffffffffffffffffffffffffffffffffffffffffffffffffffffffffffff04831182151516156145765761457561477c565b5b828202905092915050565b600061458c82614629565b915061459783614629565b9250828210156145aa576145a961477c565b5b828203905092915050565b60006145c082614609565b9050919050565b60008115159050919050565b6000819050919050565b60007fffffffff0000000000000000000000000000000000000000000000000000000082169050919050565b600073ffffffffffffffffffffffffffffffffffffffff82169050919050565b6000819050919050565b82818337600083830152505050565b60005b83811015614660578082015181840152602081019050614645565b8381111561466f576000848401525b50505050565b600061468082614629565b915060008214156146945761469361477c565b5b600182039050919050565b600060028204905060018216806146b757607f821691505b602082108114156146cb576146ca6147da565b5b50919050565b6146da82614838565b810181811067ffffffffffffffff821117156146f9576146f8614809565b5b80604052505050565b600061470d82614629565b91507fffffffffffffffffffffffffffffffffffffffffffffffffffffffffffffffff8214156147405761473f61477c565b5b600182019050919050565b600061475682614629565b915061476183614629565b925082614771576147706147ab565b5b828206905092915050565b7f4e487b7100000000000000000000000000000000000000000000000000000000600052601160045260246000fd5b7f4e487b7100000000000000000000000000000000000000000000000000000000600052601260045260246000fd5b7f4e487b7100000000000000000000000000000000000000000000000000000000600052602260045260246000fd5b7f4e487b7100000000000000000000000000000000000000000000000000000000600052604160045260246000fd5b6000601f19601f8301169050919050565b7f537472696e67733a20686578206c656e67746820696e73756666696369656e74600082015250565b7f4552433732313a207472616e7366657220746f206e6f6e20455243373231526560008201527f63656976657220696d706c656d656e7465720000000000000000000000000000602082015250565b7f4f776e61626c653a206e6577206f776e657220697320746865207a65726f206160008201527f6464726573730000000000000000000000000000000000000000000000000000602082015250565b7f4f6e6c792063616c6c6564206279206f6e65466f726765000000000000000000600082015250565b7f4552433732313a207472616e736665722066726f6d20696e636f72726563742060008201527f6f776e6572000000000000000000000000000000000000000000000000000000602082015250565b7f4552433732313a20746f6b656e20616c7265616479206d696e74656400000000600082015250565b7f28782c792c7a292073686f756c6420626520696e7369646520626f756e647300600082015250565b7f4552433732313a207472616e7366657220746f20746865207a65726f2061646460008201527f7265737300000000000000000000000000000000000000000000000000000000602082015250565b7f4552433732313a20617070726f766520746f2063616c6c657200000000000000600082015250565b7f416464726573733a20696e73756666696369656e742062616c616e636520666f60008201527f722063616c6c0000000000000000000000000000000000000000000000000000602082015250565b7f4552433732313a206f70657261746f7220717565727920666f72206e6f6e657860008201527f697374656e7420746f6b656e0000000000000000000000000000000000000000602082015250565b7f416464726573732063616e6e6f74206265207a65726f00000000000000000000600082015250565b7f4174206c65617374206f6e6520636f6f7264696e617465207265717569726564600082015250565b7f4552433732313a20617070726f76652063616c6c6572206973206e6f74206f7760008201527f6e6572206e6f7220617070726f76656420666f7220616c6c0000000000000000602082015250565b7f4552433732313a2062616c616e636520717565727920666f7220746865207a6560008201527f726f206164647265737300000000000000000000000000000000000000000000602082015250565b7f4552433732313a206f776e657220717565727920666f72206e6f6e657869737460008201527f656e7420746f6b656e0000000000000000000000000000000000000000000000602082015250565b7f54686520636f6f7264696e617465732073686f756c6420686176652073616d6560008201527f206c656e67746800000000000000000000000000000000000000000000000000602082015250565b7f4552433732313a206d696e7420746f20746865207a65726f2061646472657373600082015250565b7f4552433732313a20617070726f76656420717565727920666f72206e6f6e657860008201527f697374656e7420746f6b656e0000000000000000000000000000000000000000602082015250565b7f4f776e61626c653a2063616c6c6572206973206e6f7420746865206f776e6572600082015250565b7f54686520636f6f7264696e61746520782c792c7a20616c7265616479206d696e60008201527f7465640000000000000000000000000000000000000000000000000000000000602082015250565b7f4552433732314d657461646174613a2055524920717565727920666f72206e6f60008201527f6e6578697374656e7420746f6b656e0000000000000000000000000000000000602082015250565b7f4552433732313a20617070726f76616c20746f2063757272656e74206f776e6560008201527f7200000000000000000000000000000000000000000000000000000000000000602082015250565b7f4552433732313a207472616e736665722063616c6c6572206973206e6f74206f60008201527f776e6572206e6f7220617070726f766564000000000000000000000000000000602082015250565b7f416464726573733a2063616c6c20746f206e6f6e2d636f6e7472616374000000600082015250565b7f4d696e7420746f207a65726f2061646472657373000000000000000000000000600082015250565b7f416363657373436f6e74726f6c3a206163636f756e7420000000000000000000600082015250565b7f5361666545524332303a204552433230206f7065726174696f6e20646964206e60008201527f6f74207375636365656400000000000000000000000000000000000000000000602082015250565b7f206973206d697373696e6720726f6c6520000000000000000000000000000000600082015250565b7f416363657373436f6e74726f6c3a2063616e206f6e6c792072656e6f756e636560008201527f20726f6c657320666f722073656c660000000000000000000000000000000000602082015250565b614fa6816145b5565b8114614fb157600080fd5b50565b614fbd816145c7565b8114614fc857600080fd5b50565b614fd4816145d3565b8114614fdf57600080fd5b50565b614feb816145dd565b8114614ff657600080fd5b50565b61500281614629565b811461500d57600080fd5b5056fea26469706673582212208535d8345ad4615424355dc2250828b9747ca4b8490caa4fb0115f484aab7d3664736f6c63430008010033",
  "linkReferences": {},
  "deployedLinkReferences": {}
}