{
  "_format": "hh-sol-artifact-1",
  "contractName": "NFTMarketplace",
  "sourceName": "contracts/NFTMarketplace.sol",
  "abi": [
    {
      "inputs": [
        {
          "internalType": "contract IERC721",
          "name": "_nft",
          "type": "address"
        },
        {
          "internalType": "contract IERC20",
          "name": "_token",
          "type": "address"
        },
        {
          "internalType": "contract IOneForge",
          "name": "_forge",
          "type": "address"
        }
      ],
      "stateMutability": "nonpayable",
      "type": "constructor"
    },
    {
      "anonymous": false,
      "inputs": [
        {
          "indexed": true,
          "internalType": "address",
          "name": "userAddr",
          "type": "address"
        },
        {
          "indexed": true,
          "internalType": "address",
          "name": "sellerAddr",
          "type": "address"
        },
        {
          "indexed": true,
          "internalType": "uint256",
          "name": "tokenId",
          "type": "uint256"
        },
        {
          "indexed": false,
          "internalType": "uint256",
          "name": "price",
          "type": "uint256"
        }
      ],
      "name": "BuyNFT",
      "type": "event"
    },
    {
      "anonymous": false,
      "inputs": [
        {
          "indexed": true,
          "internalType": "uint256",
          "name": "tokenId",
          "type": "uint256"
        },
        {
          "indexed": true,
          "internalType": "uint256",
          "name": "id",
          "type": "uint256"
        },
        {
          "indexed": false,
          "internalType": "uint256",
          "name": "changedPrice",
          "type": "uint256"
        }
      ],
      "name": "ChangeFloatPrice",
      "type": "event"
    },
    {
      "anonymous": false,
      "inputs": [
        {
          "indexed": true,
          "internalType": "uint256",
          "name": "tokenId",
          "type": "uint256"
        }
      ],
      "name": "RemoveNFT",
      "type": "event"
    },
    {
      "anonymous": false,
      "inputs": [
        {
          "indexed": false,
          "internalType": "uint256",
          "name": "id",
          "type": "uint256"
        },
        {
          "indexed": true,
          "internalType": "uint256",
          "name": "tokenId",
          "type": "uint256"
        },
        {
          "indexed": false,
          "internalType": "uint256",
          "name": "price",
          "type": "uint256"
        },
        {
          "indexed": true,
          "internalType": "address",
          "name": "sellerAddress",
          "type": "address"
        }
      ],
      "name": "SellNFT",
      "type": "event"
    },
    {
      "anonymous": false,
      "inputs": [
        {
          "indexed": false,
          "internalType": "uint256",
          "name": "id",
          "type": "uint256"
        },
        {
          "indexed": true,
          "internalType": "uint256",
          "name": "tokenId",
          "type": "uint256"
        },
        {
          "indexed": false,
          "internalType": "uint256",
          "name": "price",
          "type": "uint256"
        },
        {
          "indexed": true,
          "internalType": "address",
          "name": "sellerAddress",
          "type": "address"
        }
      ],
      "name": "SellNFTForFloatPrice",
      "type": "event"
    },
    {
      "inputs": [
        {
          "internalType": "uint256",
          "name": "_id",
          "type": "uint256"
        }
      ],
      "name": "buyNFTItem",
      "outputs": [],
      "stateMutability": "payable",
      "type": "function"
    },
    {
      "inputs": [
        {
          "internalType": "uint256",
          "name": "premiumNo",
          "type": "uint256"
        },
        {
          "internalType": "uint256",
          "name": "_id",
          "type": "uint256"
        },
        {
          "internalType": "uint256",
          "name": "floatPrice",
          "type": "uint256"
        }
      ],
      "name": "changeFloatPrice",
      "outputs": [
        {
          "internalType": "uint256",
          "name": "",
          "type": "uint256"
        }
      ],
      "stateMutability": "nonpayable",
      "type": "function"
    },
    {
      "inputs": [],
      "name": "itemId",
      "outputs": [
        {
          "internalType": "uint256",
          "name": "",
          "type": "uint256"
        }
      ],
      "stateMutability": "view",
      "type": "function"
    },
    {
      "inputs": [
        {
          "internalType": "uint256",
          "name": "_itemId",
          "type": "uint256"
        }
      ],
      "name": "removeNFTFromSell",
      "outputs": [],
      "stateMutability": "nonpayable",
      "type": "function"
    },
    {
      "inputs": [
        {
          "internalType": "uint256",
          "name": "",
          "type": "uint256"
        }
      ],
      "name": "saleNFTItem",
      "outputs": [
        {
          "internalType": "uint256",
          "name": "tokenId",
          "type": "uint256"
        },
        {
          "internalType": "uint256",
          "name": "price",
          "type": "uint256"
        },
        {
          "internalType": "uint256",
          "name": "length",
          "type": "uint256"
        },
        {
          "internalType": "address",
          "name": "sellerAddr",
          "type": "address"
        }
      ],
      "stateMutability": "view",
      "type": "function"
    },
    {
      "inputs": [
        {
          "internalType": "uint256",
          "name": "_tokenId",
          "type": "uint256"
        },
        {
          "internalType": "uint256",
          "name": "_price",
          "type": "uint256"
        }
      ],
      "name": "sellNFTItem",
      "outputs": [],
      "stateMutability": "nonpayable",
      "type": "function"
    },
    {
      "inputs": [
        {
          "internalType": "uint256",
          "name": "_tokenId",
          "type": "uint256"
        },
        {
          "internalType": "uint256",
          "name": "_premiumValue",
          "type": "uint256"
        },
        {
          "internalType": "uint256",
          "name": "_floatPrice",
          "type": "uint256"
        }
      ],
      "name": "sellNFTItemForFloatPrice",
      "outputs": [],
      "stateMutability": "nonpayable",
      "type": "function"
    }
  ],
  "bytecode": "0x60e06040523480156200001157600080fd5b5060405162001f9a38038062001f9a83398181016040528101906200003791906200012a565b8273ffffffffffffffffffffffffffffffffffffffff1660808173ffffffffffffffffffffffffffffffffffffffff1660601b815250508173ffffffffffffffffffffffffffffffffffffffff1660a08173ffffffffffffffffffffffffffffffffffffffff1660601b815250508073ffffffffffffffffffffffffffffffffffffffff1660c08173ffffffffffffffffffffffffffffffffffffffff1660601b815250505050506200023e565b600081519050620000f681620001f0565b92915050565b6000815190506200010d816200020a565b92915050565b600081519050620001248162000224565b92915050565b6000806000606084860312156200014057600080fd5b60006200015086828701620000fc565b93505060206200016386828701620000e5565b9250506040620001768682870162000113565b9150509250925092565b60006200018d82620001d0565b9050919050565b6000620001a18262000180565b9050919050565b6000620001b58262000180565b9050919050565b6000620001c98262000180565b9050919050565b600073ffffffffffffffffffffffffffffffffffffffff82169050919050565b620001fb8162000194565b81146200020757600080fd5b50565b6200021581620001a8565b81146200022157600080fd5b50565b6200022f81620001bc565b81146200023b57600080fd5b50565b60805160601c60a05160601c60c05160601c611cfc6200029e6000396000818161034b015281816103f801528181610a9201528181610cef0152610d9c015260005050600081816104bf015281816109fe0152610e630152611cfc6000f3fe6080604052600436106100705760003560e01c806399b59e541161004e57806399b59e54146100e3578063b698cf5b14610120578063c9b5dd9014610149578063ca6158cb1461018957610070565b80631bd040201461007557806358eb261b1461009e57806388c09e43146100c7575b600080fd5b34801561008157600080fd5b5061009c60048036038101906100979190611396565b6101b4565b005b3480156100aa57600080fd5b506100c560048036038101906100c091906113e8565b610346565b005b6100e160048036038101906100dc9190611396565b6106af565b005b3480156100ef57600080fd5b5061010a60048036038101906101059190611424565b610b26565b6040516101179190611775565b60405180910390f35b34801561012c57600080fd5b5061014760048036038101906101429190611424565b610cea565b005b34801561015557600080fd5b50610170600480360381019061016b9190611396565b611055565b60405161018094939291906117e2565b60405180910390f35b34801561019557600080fd5b5061019e6110a5565b6040516101ab9190611775565b60405180910390f35b6000600160008381526020019081526020016000206040518060800160405290816000820154815260200160018201548152602001600282015481526020016003820160009054906101000a900473ffffffffffffffffffffffffffffffffffffffff1673ffffffffffffffffffffffffffffffffffffffff1673ffffffffffffffffffffffffffffffffffffffff16815250509050806060015173ffffffffffffffffffffffffffffffffffffffff163373ffffffffffffffffffffffffffffffffffffffff16146102bc576040517f08c379a00000000000000000000000000000000000000000000000000000000081526004016102b390611675565b60405180910390fd5b80600001517fea226c145900255f665a8cd7025632a5df739e19b8f17a49dc1ad59f2c90655760405160405180910390a260016000838152602001908152602001600020600080820160009055600182016000905560028201600090556003820160006101000a81549073ffffffffffffffffffffffffffffffffffffffff021916905550505050565b6000807f000000000000000000000000000000000000000000000000000000000000000073ffffffffffffffffffffffffffffffffffffffff1663f7c212cf856040518263ffffffff1660e01b81526004016103a29190611775565b60206040518083038186803b1580156103ba57600080fd5b505afa1580156103ce573d6000803e3d6000fd5b505050506040513d601f19601f820116820180604052508101906103f291906113bf565b905060007f000000000000000000000000000000000000000000000000000000000000000073ffffffffffffffffffffffffffffffffffffffff166334389820866040518263ffffffff1660e01b815260040161044f9190611775565b602060405180830381600087803b15801561046957600080fd5b505af115801561047d573d6000803e3d6000fd5b505050506040513d601f19601f820116820180604052508101906104a1919061136d565b905084610a5d111580156104b857506202062a8511155b156105dc577f000000000000000000000000000000000000000000000000000000000000000073ffffffffffffffffffffffffffffffffffffffff16636352211e866040518263ffffffff1660e01b81526004016105169190611775565b60206040518083038186803b15801561052e57600080fd5b505afa158015610542573d6000803e3d6000fd5b505050506040513d601f19601f82011682018060405250810190610566919061136d565b73ffffffffffffffffffffffffffffffffffffffff163373ffffffffffffffffffffffffffffffffffffffff16146105d3576040517f08c379a00000000000000000000000000000000000000000000000000000000081526004016105ca906116b5565b60405180910390fd5b6001925061069d565b620222e0851061069c57600082141561062a576040517f08c379a0000000000000000000000000000000000000000000000000000000008152600401610621906116d5565b60405180910390fd5b8073ffffffffffffffffffffffffffffffffffffffff163373ffffffffffffffffffffffffffffffffffffffff1614610698576040517f08c379a000000000000000000000000000000000000000000000000000000000815260040161068f90611735565b60405180910390fd5b8192505b5b6106a88585856110ab565b5050505050565b6000600160008381526020019081526020016000206040518060800160405290816000820154815260200160018201548152602001600282015481526020016003820160009054906101000a900473ffffffffffffffffffffffffffffffffffffffff1673ffffffffffffffffffffffffffffffffffffffff1673ffffffffffffffffffffffffffffffffffffffff16815250509050600073ffffffffffffffffffffffffffffffffffffffff163373ffffffffffffffffffffffffffffffffffffffff1614156107b5576040517f08c379a00000000000000000000000000000000000000000000000000000000081526004016107ac90611655565b60405180910390fd5b806060015173ffffffffffffffffffffffffffffffffffffffff163373ffffffffffffffffffffffffffffffffffffffff161415610828576040517f08c379a000000000000000000000000000000000000000000000000000000000815260040161081f90611635565b60405180910390fd5b806020015134101561086f576040517f08c379a000000000000000000000000000000000000000000000000000000000815260040161086690611695565b60405180910390fd5b600081606001519050600082600001519050600083604001519050600084602001513461089c9190611919565b905082856060015173ffffffffffffffffffffffffffffffffffffffff163373ffffffffffffffffffffffffffffffffffffffff167fe35677743c6b7abf01cca38cf0f4b986386e50105ec5fd3f42daeea57acf57a988602001516040516109049190611775565b60405180910390a460016000878152602001908152602001600020600080820160009055600182016000905560028201600090556003820160006101000a81549073ffffffffffffffffffffffffffffffffffffffff021916905550508373ffffffffffffffffffffffffffffffffffffffff166108fc86602001519081150290604051600060405180830381858888f193505050501580156109ab573d6000803e3d6000fd5b503373ffffffffffffffffffffffffffffffffffffffff166108fc829081150290604051600060405180830381858888f193505050501580156109f2573d6000803e3d6000fd5b506001821415610a90577f000000000000000000000000000000000000000000000000000000000000000073ffffffffffffffffffffffffffffffffffffffff166342842e0e8533866040518463ffffffff1660e01b8152600401610a59939291906115fe565b600060405180830381600087803b158015610a7357600080fd5b505af1158015610a87573d6000803e3d6000fd5b50505050610b1e565b7f000000000000000000000000000000000000000000000000000000000000000073ffffffffffffffffffffffffffffffffffffffff166399e6731284336040518363ffffffff1660e01b8152600401610aeb929190611790565b600060405180830381600087803b158015610b0557600080fd5b505af1158015610b19573d6000803e3d6000fd5b505050505b505050505050565b6000600a841015610b6c576040517f08c379a0000000000000000000000000000000000000000000000000000000008152600401610b63906116f5565b60405180910390fd5b6064841115610bb0576040517f08c379a0000000000000000000000000000000000000000000000000000000008152600401610ba790611755565b60405180910390fd5b6001600084815260200190815260200160002060030160009054906101000a900473ffffffffffffffffffffffffffffffffffffffff1673ffffffffffffffffffffffffffffffffffffffff163373ffffffffffffffffffffffffffffffffffffffff1614610c54576040517f08c379a0000000000000000000000000000000000000000000000000000000008152600401610c4b90611715565b60405180910390fd5b6000600160008581526020019081526020016000209050600060648685610c7b91906118bf565b610c85919061188e565b905060008185610c959190611838565b90508083600101819055508583600001547f3ad6fc72ec6149e8ed9978bce755a55869a494c626c04d8ddade9a10074a4c8e83604051610cd59190611775565b60405180910390a38093505050509392505050565b6000807f000000000000000000000000000000000000000000000000000000000000000073ffffffffffffffffffffffffffffffffffffffff1663f7c212cf866040518263ffffffff1660e01b8152600401610d469190611775565b60206040518083038186803b158015610d5e57600080fd5b505afa158015610d72573d6000803e3d6000fd5b505050506040513d601f19601f82011682018060405250810190610d9691906113bf565b905060007f000000000000000000000000000000000000000000000000000000000000000073ffffffffffffffffffffffffffffffffffffffff166334389820876040518263ffffffff1660e01b8152600401610df39190611775565b602060405180830381600087803b158015610e0d57600080fd5b505af1158015610e21573d6000803e3d6000fd5b505050506040513d601f19601f82011682018060405250810190610e45919061136d565b905085610a5d11158015610e5c57506202062a8611155b15610f80577f000000000000000000000000000000000000000000000000000000000000000073ffffffffffffffffffffffffffffffffffffffff16636352211e876040518263ffffffff1660e01b8152600401610eba9190611775565b60206040518083038186803b158015610ed257600080fd5b505afa158015610ee6573d6000803e3d6000fd5b505050506040513d601f19601f82011682018060405250810190610f0a919061136d565b73ffffffffffffffffffffffffffffffffffffffff163373ffffffffffffffffffffffffffffffffffffffff1614610f77576040517f08c379a0000000000000000000000000000000000000000000000000000000008152600401610f6e906116b5565b60405180910390fd5b60019250611041565b620222e08610611040576000821415610fce576040517f08c379a0000000000000000000000000000000000000000000000000000000008152600401610fc5906116d5565b60405180910390fd5b8073ffffffffffffffffffffffffffffffffffffffff163373ffffffffffffffffffffffffffffffffffffffff161461103c576040517f08c379a000000000000000000000000000000000000000000000000000000000815260040161103390611735565b60405180910390fd5b8192505b5b61104d86868587611191565b505050505050565b60016020528060005260406000206000915090508060000154908060010154908060020154908060030160009054906101000a900473ffffffffffffffffffffffffffffffffffffffff16905084565b60005481565b6000808154809291906110bd906119bf565b9190505550600060016000805481526020019081526020016000209050838160000181905550828160010181905550338160030160006101000a81548173ffffffffffffffffffffffffffffffffffffffff021916908373ffffffffffffffffffffffffffffffffffffffff1602179055508181600201819055503373ffffffffffffffffffffffffffffffffffffffff16847f346332e17360872bb81c65d510ebfe764befa0165c01c2a9eb871a61aedcb6ef600054866040516111839291906117b9565b60405180910390a350505050565b600a8310156111d5576040517f08c379a00000000000000000000000000000000000000000000000000000000081526004016111cc906116f5565b60405180910390fd5b6064831115611219576040517f08c379a000000000000000000000000000000000000000000000000000000000815260040161121090611755565b60405180910390fd5b60008081548092919061122b906119bf565b919050555060006064848361124091906118bf565b61124a919061188e565b90506000818361125a9190611838565b9050600060016000805481526020019081526020016000209050868160000181905550818160010181905550338160030160006101000a81548173ffffffffffffffffffffffffffffffffffffffff021916908373ffffffffffffffffffffffffffffffffffffffff1602179055508481600201819055503373ffffffffffffffffffffffffffffffffffffffff16877f4cd75a56a80507c08a32f1d06894cbc06a43350ffb7887aa2f714ca58d48724d6000548560405161131d9291906117b9565b60405180910390a350505050505050565b60008151905061133d81611c98565b92915050565b60008135905061135281611caf565b92915050565b60008151905061136781611caf565b92915050565b60006020828403121561137f57600080fd5b600061138d8482850161132e565b91505092915050565b6000602082840312156113a857600080fd5b60006113b684828501611343565b91505092915050565b6000602082840312156113d157600080fd5b60006113df84828501611358565b91505092915050565b600080604083850312156113fb57600080fd5b600061140985828601611343565b925050602061141a85828601611343565b9150509250929050565b60008060006060848603121561143957600080fd5b600061144786828701611343565b935050602061145886828701611343565b925050604061146986828701611343565b9150509250925092565b61147c81611989565b82525050565b61148b8161194d565b82525050565b600061149e601183611827565b91506114a982611a66565b602082019050919050565b60006114c1601a83611827565b91506114cc82611a8f565b602082019050919050565b60006114e4602483611827565b91506114ef82611ab8565b604082019050919050565b6000611507601083611827565b915061151282611b07565b602082019050919050565b600061152a601383611827565b915061153582611b30565b602082019050919050565b600061154d601483611827565b915061155882611b59565b602082019050919050565b6000611570602f83611827565b915061157b82611b82565b604082019050919050565b6000611593602183611827565b915061159e82611bd1565b604082019050919050565b60006115b6600d83611827565b91506115c182611c20565b602082019050919050565b60006115d9602d83611827565b91506115e482611c49565b604082019050919050565b6115f88161197f565b82525050565b60006060820190506116136000830186611473565b6116206020830185611482565b61162d60408301846115ef565b949350505050565b6000602082019050818103600083015261164e81611491565b9050919050565b6000602082019050818103600083015261166e816114b4565b9050919050565b6000602082019050818103600083015261168e816114d7565b9050919050565b600060208201905081810360008301526116ae816114fa565b9050919050565b600060208201905081810360008301526116ce8161151d565b9050919050565b600060208201905081810360008301526116ee81611540565b9050919050565b6000602082019050818103600083015261170e81611563565b9050919050565b6000602082019050818103600083015261172e81611586565b9050919050565b6000602082019050818103600083015261174e816115a9565b9050919050565b6000602082019050818103600083015261176e816115cc565b9050919050565b600060208201905061178a60008301846115ef565b92915050565b60006040820190506117a560008301856115ef565b6117b26020830184611482565b9392505050565b60006040820190506117ce60008301856115ef565b6117db60208301846115ef565b9392505050565b60006080820190506117f760008301876115ef565b61180460208301866115ef565b61181160408301856115ef565b61181e6060830184611482565b95945050505050565b600082825260208201905092915050565b60006118438261197f565b915061184e8361197f565b9250827fffffffffffffffffffffffffffffffffffffffffffffffffffffffffffffffff0382111561188357611882611a08565b5b828201905092915050565b60006118998261197f565b91506118a48361197f565b9250826118b4576118b3611a37565b5b828204905092915050565b60006118ca8261197f565b91506118d58361197f565b9250817fffffffffffffffffffffffffffffffffffffffffffffffffffffffffffffffff048311821515161561190e5761190d611a08565b5b828202905092915050565b60006119248261197f565b915061192f8361197f565b92508282101561194257611941611a08565b5b828203905092915050565b60006119588261195f565b9050919050565b600073ffffffffffffffffffffffffffffffffffffffff82169050919050565b6000819050919050565b60006119948261199b565b9050919050565b60006119a6826119ad565b9050919050565b60006119b88261195f565b9050919050565b60006119ca8261197f565b91507fffffffffffffffffffffffffffffffffffffffffffffffffffffffffffffffff8214156119fd576119fc611a08565b5b600182019050919050565b7f4e487b7100000000000000000000000000000000000000000000000000000000600052601160045260246000fd5b7f4e487b7100000000000000000000000000000000000000000000000000000000600052601260045260246000fd5b7f53656c6c65722063616e6e6f7420627579000000000000000000000000000000600082015250565b7f43616e6e6f742062757920746f207a65726f2061646472657373000000000000600082015250565b7f4f6e6c792073656c6c65722063616e2072656d6f7665206e66742066726f6d2060008201527f73656c6c00000000000000000000000000000000000000000000000000000000602082015250565b7f4e6f7420656e6f7567682066756e647300000000000000000000000000000000600082015250565b7f4e6f742063616c6c6564206279206f776e657200000000000000000000000000600082015250565b7f4e6f7420636f6e7461696e20616e792064617461000000000000000000000000600082015250565b7f5072656d696d756d2076616c7565206d7573742062652067726561746572207460008201527f68616e20657175616c20746f2031300000000000000000000000000000000000602082015250565b7f4f6e6c792073656c6c657220616c6c6f7720746f206368616e6765207072696360008201527f6500000000000000000000000000000000000000000000000000000000000000602082015250565b7f4e6f74206f776e6564204e465400000000000000000000000000000000000000600082015250565b7f5072656d696d756d2076616c7565206d757374206265206c657373207468616e60008201527f20657175616c20746f2031303000000000000000000000000000000000000000602082015250565b611ca18161194d565b8114611cac57600080fd5b50565b611cb88161197f565b8114611cc357600080fd5b5056fea2646970667358221220a32e9dddda5540a7203cf427512f9bb01bad2d7b0061eeaf012c83275238eaca64736f6c63430008010033",
  "linkReferences": {},
  "deployedLinkReferences": {}
}